:040000005DEF00F0C0
:100008004F82FACF03F0FBCF04F0E9CF05F0EACF37
:1000180006F0E1CF07F0E2CF08F0D9CF09F0DACF48
:100028000AF0F3CF0BF0F4CF0CF0F6CF0DF0F7CFCA
:100038000EF0F8CF0FF0F5CF10F0F2BC9DA603D06C
:100048009EB632EC1DF0F2BC9DA803D09EB851ECD0
:100058001EF0F2BC9DAA03D09EBAC8EC1EF0F2BCFA
:100068007DA003D07EB097EC20F0F2BC9DA203D017
:100078009EB29BEC20F010C0F5FF0FC0F8FF0EC039
:10008800F7FF0DC0F6FF0CC0F4FF0BC0F3FF0AC06A
:10009800DAFF09C0D9FF08C0E2FF07C0E1FF06C0C8
:1000A800EAFF05C0E9FF04C0FBFF03C0FAFF4F9257
:0600B8001100C8EF1AF070
:101000000034544F323000312E30005061736F7312
:10101000206D6F746F723A205F5F5F5F5F2020000A
:1010200049443A205F5F20506F736963696F6E3A7D
:10103000205F5F200053454E20413A205F5F5F5F95
:1010400020423A205F5F5F5F200046573A204246C9
:101050005F5F5F5F2048573A205F5F5F5F2000005F
:10106000010E0101E16F000E0101E66F000EE56F58
:10107000000E0101E96F000E0101EA6F000E01018F
:10108000EB6F000E0101E86F000EE76F0CEF0DF043
:101090008CBE02D08C8E01D08C9E000120EE07F019
:1010A000F151D926F251DA22DF500001F36F00012D
:1010B00020EE06F0F151D926F251DA22DF5000017C
:1010C000F46F0001F4510001F66FF56B0001F3516C
:1010D0000001F5250101E56F0001000E0001F62178
:1010E0000101E66FE5C119F0E6C11AF062EC1FF0EC
:1010F00019C028F01AC029F01BC02AF0000E2B6E70
:10110000C80E2C6E420E2D6E9CEC15F028C0E9F135
:1011100029C0EAF12AC0EBF1800E1C6E2A0E1D6E6A
:10112000440E1E6EE9C119F0EAC11AF0EBC11BF0C2
:10113000ACEC14F019C028F01AC029F01BC02AF03A
:10114000000E2B6EC80E2C6E420E2D6E9CEC15F010
:1011500028C0E9F129C0EAF12AC0EBF1E9C11CF08D
:10116000EAC11DF0EBC11EF032EC14F01CC0E7F137
:101170001DC0E8F1E7C119F0E8C11AF062EC1FF0F8
:1011800019C0E9F01AC0EAF01BC0EBF048EC19F006
:10119000E9C0E2F1EAC0E3F1EBC0E4F1E2C11CF026
:1011A000E3C11DF0E4C11EF032EC14F01CC0EFF0FE
:1011B0001DC0F0F09AEC1EF02EEF0DF08CBE02D0A8
:1011C0008C8E01D08C9E000120EE07F0F151D926C3
:1011D000F251DA22DF500001F36F000120EE06F039
:1011E000F151D926F251DA22DF500001F46F0001EB
:1011F000F4510001F66FF56B0001F3510001F52584
:101200000101E56F0001000E0001F6210101E66F0A
:10121000E5C119F0E6C11AF062EC1FF019C028F020
:101220001AC029F01BC02AF0000E2B6EC80E2C6EBF
:10123000420E2D6E9CEC15F028C0E9F129C0EAF1B0
:101240002AC0EBF1800E1C6E2A0E1D6E440E1E6E1F
:10125000E9C119F0EAC11AF0EBC11BF0ACEC14F0D3
:1012600019C028F01AC029F01BC02AF0000E2B6EFE
:10127000C80E2C6E420E2D6E9CEC15F028C0E9F1C4
:1012800029C0EAF12AC0EBF1E9C11CF0EAC11DF066
:10129000EBC11EF032EC14F01CC0E7F11DC0E8F108
:1012A000E7C119F0E8C11AF062EC1FF019C0E9F0CB
:1012B0001AC0EAF01BC0EBF048EC19F0E9C0E2F10B
:1012C000EAC0E3F1EBC0E4F1E2C11CF0E3C11DF0C0
:1012D000E4C11EF032EC14F01CC0EFF01DC0F0F0C1
:1012E0001CEC1EF0BBD38CBE02D08C8E01D08C9E29
:1012F000000120EE07F0F151D926F251DA22DF5039
:101300000001F36F000120EE06F0F151D926F251F1
:10131000DA22DF500001F46F0001F4510001F66F92
:10132000F56B0001F3510001F5250101E56F0001A6
:10133000000E0001F6210101E66FE5C119F0E6C1DA
:101340001AF062EC1FF019C028F01AC029F01BC077
:101350002AF0000E2B6EC80E2C6E420E2D6E9CECE9
:1013600015F028C0E9F129C0EAF12AC0EBF1800E9E
:101370001C6E2A0E1D6E440E1E6EE9C119F0EAC1E4
:101380001AF0EBC11BF0ACEC14F019C028F01AC035
:1013900029F01BC02AF0000E2B6EC80E2C6E420ED8
:1013A0002D6E9CEC15F028C0E9F129C0EAF12AC0A5
:1013B000EBF1E9C11CF0EAC11DF0EBC11EF032EC0B
:1013C00014F01CC0E7F11DC0E8F1E7C119F0E8C155
:1013D0001AF062EC1FF019C0E9F01AC0EAF01BC065
:1013E000EBF048EC19F0E9C0E2F1EAC0E3F1EBC040
:1013F000E4F1E2C11CF0E3C11DF0E4C11EF032ECE7
:1014000014F01CC0EFF01DC0F0F001EC1EF026D36C
:101410008CBE02D08C8E01D08C9E000120EE07F095
:10142000F151D926F251DA22DF500001F36F0001A9
:1014300020EE06F0F151D926F251DA22DF500001F8
:10144000F46F0001F4510001F66FF56B0001F351E8
:101450000001F5250101E56F0001000E0001F621F4
:101460000101E66FE5C119F0E6C11AF062EC1FF068
:1014700019C028F01AC029F01BC02AF0000E2B6EEC
:10148000C80E2C6E420E2D6E9CEC15F028C0E9F1B2
:1014900029C0EAF12AC0EBF1800E1C6E2A0E1D6EE7
:1014A000440E1E6EE9C119F0EAC11AF0EBC11BF03F
:1014B000ACEC14F019C028F01AC029F01BC02AF0B7
:1014C000000E2B6EC80E2C6E420E2D6E9CEC15F08D
:1014D00028C0E9F129C0EAF12AC0EBF1E9C11CF00A
:1014E000EAC11DF0EBC11EF032EC14F01CC0E7F1B4
:1014F0001DC0E8F1E7C119F0E8C11AF062EC1FF075
:1015000019C0E9F01AC0EAF01BC0EBF048EC19F082
:10151000E9C0E2F1EAC0E3F1EBC0E4F1E2C11CF0A2
:10152000E3C11DF0E4C11EF032EC14F01CC0EFF07A
:101530001DC0F0F0E6EC1DF091D28CBE02D08C8E76
:1015400001D08C9E000120EE07F0F151D926F25116
:10155000DA22DF500001F36F000120EE06F0F151B6
:10156000D926F251DA22DF500001F46F0001F45164
:101570000001F66FF56B0001F3510001F525010143
:10158000E56F0001000E0001F6210101E66FE5C1E3
:1015900019F0E6C11AF062EC1FF019C028F01AC069
:1015A00029F01BC02AF0000E2B6EC80E2C6E420EC6
:1015B0002D6E9CEC15F028C0E9F129C0EAF12AC093
:1015C000EBF1800E1C6E2A0E1D6E440E1E6EE9C1DC
:1015D00019F0EAC11AF0EBC11BF0ACEC14F019C021
:1015E00028F01AC029F01BC02AF0000E2B6EC80E7E
:1015F0002C6E420E2D6E9CEC15F028C0E9F129C02E
:10160000EAF12AC0EBF1E9C11CF0EAC11DF0EBC11F
:101610001EF032EC14F01CC0E7F11DC0E8F1E7C188
:1016200019F0E8C11AF062EC1FF019C0E9F01AC015
:10163000EAF01BC0EBF048EC19F0E9C0E2F1EAC0B7
:10164000E3F1EBC0E4F1E2C11CF0E3C11DF0E4C141
:101650001EF032EC14F01CC0EFF01DC0F0F09AEC5C
:101660001EF0FCD18CBE02D08C8E01D08C9E00016D
:1016700020EE07F0F151D926F251DA22DF500001B5
:10168000F36F000120EE06F0F151D926F251DA2273
:10169000DF500001F46F0001F4510001F66FF56BAB
:1016A0000001F3510001F5250101E56F0001000E75
:1016B0000001F6210101E66FE5C119F0E6C11AF05B
:1016C00062EC1FF019C028F01AC029F01BC02AF0E4
:1016D000000E2B6EC80E2C6E420E2D6E9CEC15F07B
:1016E00028C0E9F129C0EAF12AC0EBF1800E1C6E96
:1016F0002A0E1D6E440E1E6EE9C119F0EAC11AF0E1
:10170000EBC11BF0ACEC14F019C028F01AC029F0A2
:101710001BC02AF0000E2B6EC80E2C6E420E2D6ED2
:101720009CEC15F028C0E9F129C0EAF12AC0EBF1E0
:10173000E9C11CF0EAC11DF0EBC11EF032EC14F05F
:101740001CC0E7F11DC0E8F1E7C119F0E8C11AF0CB
:1017500062EC1FF019C0E9F01AC0EAF01BC0EBF010
:1017600048EC19F0E9C0E2F1EAC0E3F1EBC0E4F1C2
:10177000E2C11CF0E3C11DF0E4C11EF032EC14F034
:101780001CC0EFF01DC0F0F01CEC1EF067D18CBE49
:1017900002D08C8E01D08C9E000120EE07F0F1511A
:1017A000D926F251DA22DF500001F36F000120EE5A
:1017B00006F0F151D926F251DA22DF500001F46F20
:1017C0000001F4510001F66FF56B0001F3510001C7
:1017D000F5250101E56F0001000E0001F621010170
:1017E000E66FE5C119F0E6C11AF062EC1FF019C00E
:1017F00028F01AC029F01BC02AF0000E2B6EC80E6C
:101800002C6E420E2D6E9CEC15F028C0E9F129C01B
:10181000EAF12AC0EBF1800E1C6E2A0E1D6E440EFA
:101820001E6EE9C119F0EAC11AF0EBC11BF0ACEC75
:1018300014F019C028F01AC029F01BC02AF0000EBD
:101840002B6EC80E2C6E420E2D6E9CEC15F028C02F
:10185000E9F129C0EAF12AC0EBF1E9C11CF0EAC1C3
:101860001DF0EBC11EF032EC14F01CC0E7F11DC0FE
:10187000E8F1E7C119F0E8C11AF062EC1FF019C0F5
:10188000E9F01AC0EAF01BC0EBF048EC19F0E9C02F
:10189000E2F1EAC0E3F1EBC0E4F1E2C11CF0E3C124
:1018A0001DF0E4C11EF032EC14F01CC0EFF01DC0BE
:1018B000F0F001EC1EF0D2D08CBE02D08C8E01D0A4
:1018C0008C9E000120EE06F0F151D926F251DA2269
:1018D000DF500001F36F0001F3510001F56FF46B6D
:1018E000000120EE07F0F151D926F251DA22DF5043
:1018F0000001F66F0001F6510001F427000EF523F8
:10190000D00E0001F4250101E56FCF0E0001F52195
:101910000101E66FE5C119F0E6C11AF062EC1FF0B3
:1019200019C028F01AC029F01BC02AF0000E2B6E37
:10193000C80E2C6E420E2D6E9CEC15F028C0E9F1FD
:1019400029C0EAF12AC0EBF1000E116EC80E126E2A
:10195000420E136EE9C114F0EAC115F0EBC116F0A6
:1019600000EC19F0D8B009D0000E0101E96FC80EE3
:101970000101EA6F420E0101EB6F0101EBAF09D0EB
:10198000000E0101E96F000E0101EA6F000E010176
:10199000EB6FE9C11CF0EAC11DF0EBC11EF032ECA7
:1019A00014F01CC02BF01DC02CF0020E2E6EAA0EDF
:1019B0002D6E19EC1FF02BC031F02CC032F0000E50
:1019C000346E640E336E0CEC1CF031C0E7F132C0A3
:1019D000E8F1E7C119F0E8C11AF062EC1FF019C094
:1019E000E9F01AC0EAF01BC0EBF048EC19F0E9C0CE
:1019F000E2F1EAC0E3F1EBC0E4F1E2C11CF0E3C1C3
:101A00001DF0E4C11EF032EC14F01CC0EFF01DC05C
:101A1000F0F0E6EC1DF022D0000120EE05F0F151CF
:101A2000D926F251DA22DF50730AD8B448EF08F011
:101A3000070AD8B4DEEF08F0010AD8B454D4030A78
:101A4000D8B4E6D4010AD8B478D50F0AD8B40AD6E7
:101A5000010AD8B49CD6030AD8B42ED70101E151AB
:101A60001200DFC0E3F00001E46BE56B0001DE353E
:101A70000001E33701E3E4810001E3510001E86F75
:101A8000E2C0E3F00001E46BE56B0001E135000129
:101A9000E33701E3E4810001E3510001E76F000156
:101AA000E8510001D8B411D00001E7510001E85D10
:101AB000D8B012D00001E85100080001E72500016C
:101AC000E36F180E0001E36507D0E0C0DDF0E1C070
:101AD000DEF0E2C0DFF012000001E7510001D8B4EF
:101AE00011D00001E8510001E75DD8B012D000012B
:101AF000E75100080001E8250001E36F180E00011E
:101B0000E36507D0DDC0DDF0DEC0DEF0DFC0DFF072
:101B10001200060E0001E66F0001DFAF02D00001E7
:101B2000E68F0001E2AF02D00001E68D0001DE8FFA
:101B3000FF0E0001DD17FF0E0001DE17000E000191
:101B4000DF170001E18FFF0E0001E017FF0E00011B
:101B5000E117000E0001E2170001E7510001E85D06
:101B6000D8B025D00001D890E037E137E237000146
:101B7000E7070001E8510001E719D8B411D00001CE
:101B8000E607E6C0E3F0070E0001E317D8B408D07B
:101B9000E9D70001D890DF33DE33DD330001E82BD5
:101BA0000001E7510001E819D8B42BD0F2D70001A9
:101BB000E8510001E75DD8B024D00001D890DD37AE
:101BC000DE37DF370001E8070001E8510001E719BF
:101BD000D8B411D00001E607E6C0E3F0070E00011B
:101BE000E317D8B408D0E9D70001D890E233E13345
:101BF000E0330001E72B0001E7510001E819D8A408
:101C0000F3D70001E6AF12D0FF0E0001DD1BFF0E7F
:101C10000001DE1BFF0E0001DF1B010E0001DD27AE
:101C2000000E0001DE23000E0001DF230001E6ADFF
:101C300012D0FF0E0001E01BFF0E0001E11BFF0EA2
:101C40000001E21B010E0001E027000E0001E1236C
:101C5000000E0001E223000E0001E66F0001DD51DD
:101C60000001E0270001DE510001E1230001DF5106
:101C70000001E2230001E2AF15D0FF0E0001E01BDE
:101C8000FF0E0001E11BFF0E0001E21B010E00012F
:101C9000E027000E0001E123000E0001E223010E07
:101CA0000001E66FE0C011F0E1C012F0E2C013F0F5
:101CB000E8C014F0E6C015F0A8EC17F011C0DDF094
:101CC00012C0DEF013C0DFF01200DAC038F0DBC063
:101CD00039F0000E3B6E0A0E3A6E11EC1DF03850D2
:101CE0000001E96F000E346E0A0E336E0001E951F7
:101CF0003D6E3E6A3D1E3E1E3D4A3E2A0001DA51BF
:101D00003D24316E0001DB513E20326E0CEC1CF0A4
:101D100031C038F032C039F0000E3B6E0A0E3A6E18
:101D200011EC1DF038500001E86F000E346E640EA7
:101D3000336E0001E851E9C03DF03E6A3D26000ED9
:101D40003E223D1E3E1E3D4A3E2A0001DA513D2400
:101D5000316E0001DB513E20326E0CEC1CF031C0C4
:101D600038F032C039F0000E3B6E0A0E3A6E11ECBC
:101D70001DF038500001E76F030E346EE80E336E2D
:101D80000001E851E9C03DF03E6A3D26000E3E22CA
:101D90000001E7513D26000E3E223D1E3E1E3D4AFB
:101DA0003E2A0001DA513D24316E0001DB513E2014
:101DB000326E0CEC1CF031C038F032C039F0000E3D
:101DC0003B6E0A0E3A6E11EC1DF038500001E66FC2
:101DD000270E346E100E336E0001E851E9C03DF05D
:101DE0003E6A3D26000E3E220001E7513D26000ED0
:101DF0003E220001E6513D26000E3E223D1E3E1EC3
:101E00003D4A3E2A0001DA513D24316E0001DB518A
:101E10003E20326E0CEC1CF031C038F032C039F08C
:101E2000000E3B6E0A0E3A6E11EC1DF038500001A8
:101E3000DF6F050E0001DC6503D0050E0001DC6FCD
:101E4000000E0001EA6F0001EA51010DE00EF324DB
:101E5000D96E000EF420DA6E0001DF51300FDF6E14
:101E60000001EA2B0001EA51010DE00EF324D96EC6
:101E7000000EF420DA6E0001E651300FDF6E000133
:101E8000EA2B0001EA51010DE00EF324D96E000E99
:101E9000F420DA6E0001E751300FDF6E0001EA2B0B
:101EA0000001EA51010DE00EF324D96E000EF4207A
:101EB000DA6E0001E851300FDF6E0001EA2B0001FD
:101EC000EA51010DE00EF324D96E000EF420DA6E13
:101ED0000001E951300FDF6E0001EA2B0001EA51E9
:101EE000010DE00EF324D96E000EF420DA6E000E20
:101EF000DF6E0001EA2B0001DC513D6E3E6A3D1EA3
:101F00003E1E3D4A3E2A050E3D26000E3E22E00EB4
:101F10003D241B6E000E3E201C6EDDC01DF0DEC099
:101F20001EF082EC1CF01200010E376EBDD035C0E1
:101F300032F036C033F0360E346E75EC1BF0F8D04C
:101F400035C032F036C033F0360E346E75EC1BF00F
:101F5000EFD035C032F036C033F0360E346E75EC4B
:101F60001BF0E6D035C032F036C033F0360E346E9A
:101F700075EC1BF0DDD035C032F036C033F0360ED4
:101F8000346E75EC1BF0D4D035C032F036C033F06F
:101F9000360E346E75EC1BF0CBD035C032F036C047
:101FA00033F0360E346E75EC1BF0C2D035C032F013
:101FB00036C033F0360E346E75EC1BF0B9D035C038
:101FC00032F036C033F0360E346E75EC1BF0B0D004
:101FD00035C032F036C033F0360E346E75EC1BF07F
:101FE000A7D035C032F036C033F0360E346E75EC03
:101FF0001BF09ED035C032F036C033F0360E346E52
:1020000075EC1BF095D035C032F036C033F0360E8B
:10201000346E75EC1BF08CD035C032F036C033F026
:10202000360E346E75EC1BF083D035C032F036C0FE
:1020300033F0360E346E75EC1BF07AD035C032F0CA
:1020400036C033F0360E346E75EC1BF071D035C0EF
:1020500032F036C033F0360E346E75EC1BF068D0BB
:1020600035C032F036C033F0360E346E75EC1BF0EE
:102070005FD035C032F036C033F0360E346E75ECBA
:102080001BF056D035C032F036C033F0360E346E09
:1020900075EC1BF04DD035C032F036C033F0350E44
:1020A000346E75EC1BF044D020EE05F03550D92687
:1020B0003650DA22DF50250AD8B4AED7150AD8B484
:1020C000C6D7010AD8B4CCD7030AD8B4D2D7010AEC
:1020D000D8B4D8D70D0AD8B433D7010AD8B427D783
:1020E0007E0AD8B463D7030AD8B47BD7010AD8B420
:1020F0009CD7070AD8B448D7020AD8B469D7010ACE
:10210000D8B430D70F0AD8B424D7070AD8B496D792
:102110001F0AD8B430D7020AD8B43FD7010AD8B4BE
:1021200069D7090AD8B44BD73E0AD8B46CD7B3D70D
:1021300037501200010E0001F36FBCD0EBC032F03B
:10214000ECC033F0DDEC1BF0EBC032F0ECC033F050
:1021500055EC18F0CDD0EBC032F0ECC033F0DDEC34
:102160001BF0EBC032F0ECC033F0FFEC17F0C0D046
:10217000000120EE06F0EB51D926EC51DA220101E4
:102180000051DE18D8B4B4D0EBC032F0ECC033F05C
:10219000DDEC1BF0000120EE06F0EB51D926EC51EE
:1021A000DA22DF500101006F0101005142EC20F002
:1021B0009FD0010101510001ED6FEE6BD00E0001C7
:1021C000EF6FFF0E0001F06F000120EE06F0EB5103
:1021D000D926EC51DA22DF500001F16FF26B0001D9
:1021E000EF510001F1270001F0510001F22300013D
:1021F000ED510001F11906E10001EE510001F21963
:10220000D8B476D0000120EE06F0EB51D926EC517F
:10221000DA22300EDE18D8B418D0EBC032F0ECC0A1
:1022200033F0DDEC1BF0000120EE06F0EB51D92677
:10223000EC51DA22DF50D00F0101016F0101015191
:1022400038EC20F0A9EC1FF053D0EBC032F0ECC01A
:1022500033F0370E346E75EC1BF04AD0EBC032F021
:10226000ECC033F0DDEC1BF043D0000E0001F56F45
:10227000000EF46F0001F5BF08D00001F55138E100
:102280000A0E0001F45DD8B033D0EBC032F0ECC0E0
:1022900033F0DDEC1BF00001F44BF52BEBD7FF0026
:1022A00027D0EBC032F0ECC033F0350E346E75EC55
:1022B0001BF01ED0000120EE05F0EB51D926EC51A9
:1022C000DA22DF503F0AD8B4C9D77C0AD8B450D735
:1022D000050AD8B433D70E0AD8B43DD7010AD8B40A
:1022E00068D72F0AD8B4C1D7140AD8B4D8D7D9D749
:1022F0000001F3511200000E196E000E186EA00EB0
:102300001824D96E000E1920DA6E11C0E1FF12C038
:10231000E2FFDFCFE7FF184A192A20EE01F0115043
:10232000D9261250DA22A00E1824E16E000E1920D0
:10233000E26EE750F00BDF6E20EE0DF01150D92663
:102340001250DA22A00E1824E16E000E1920E26E5F
:10235000E7500F0BDF6E184A192AA00E1824D96E09
:10236000000E1920DA6E10EE02F01150E126125024
:10237000E222DFCFE7FF184A192A20EE03F01150BE
:10238000D9261250DA22A00E1824E16E000E192070
:10239000E26EE750D00FDF6E184A192AA00E1824FB
:1023A000D96E000E1920DA6E10EE04F01150E126FD
:1023B0001250E222DFCFE7FF184A192AA00E182494
:1023C000D96E000E1920DA6E10EE05F01150E126DC
:1023D0001250E222DFCFE7FF184A192A000E176ECB
:1023E000000E166E18D0A00E1824D96E000E1920FB
:1023F000DA6E060E1624136E000E1720146E13509C
:102400001124E16E14501220E26EDFCFE7FF184A6C
:10241000192A164A172A20EE0DF01150D92612500B
:10242000DA22DF50136E146A1350165C1750800ABC
:10243000156E1450800A1558D8A0D5D7A00E1824B0
:10244000D96E000E1920DA6E10EE0BF01150E12655
:102450001250E222DFCFE7FF184A192AA00E1824F3
:10246000D96E000E1920DA6E10EE0CF01150E12634
:102470001250E222DFCFE7FF20EE0EF01150D926F6
:102480001250DA22030EDF6E20EE0FF01150D92623
:102490001250DA22010EDF6E120018C0D9FF19C0E7
:1024A000DAFFDF501E6E20EE0DF01850D9261950BD
:1024B000DA22DF501A6E20EE01F01850D92619509A
:1024C000DA22DF501A101F6E20EE02F01850D926C3
:1024D0001950DA22DF50206E20EE03F01850D92672
:1024E0001950DA22DF50300F216E20EE04F0185020
:1024F000D9261950DA22DF50226E20EE05F018504E
:10250000D9261950DA22DF50236E000E2F6E000EEE
:102510002E6E1CD0060E2E241A6E000E2F201B6E5F
:102520001A501824D96E1B501920DA6E060E2E246C
:102530001C6E000E2F201D6E1E0E1C24E16E000E60
:102540001D20E26EDFCFE7FF2E4A2F2A20EE0DF08E
:102550001850D9261950DA22DF501A6E1B6A1A5009
:102560002E5C2F50800A1C6E1B50800A1C58D8A06D
:10257000D1D720EE0BF01850D9261950DA2210EEE0
:102580000DF01850E1261950E222E7501A6E1B6A2E
:10259000060E1A26000E1B221E0E1A24E16E000ED5
:1025A0001B20E26EDFCFE7FF20EE0CF01850D9269B
:1025B0001950DA2210EE0DF01850E1261950E222DF
:1025C000E7501A6E1B6A070E1A26000E1B221E0EFB
:1025D0001A24E16E000E1B20E26EDFCFE7FF000E33
:1025E0002F6E000E2E6E20EE0DF01850D9261950C9
:1025F000DA22DF50080F2D6E1E0E116E000E126EC5
:102600002DC013F0F2EC1EF01E0E2E24D96E000E1B
:102610002F20DA6EDF508EEC20F02E501A6E2F50E5
:102620001B6E2E4A2F2A1E0E1A24D96E000E1B2056
:10263000DA6E040EDE18D8B41200E6D70001C851D5
:102640000001D8A41CD0000E406E000E3F6E000E9C
:10265000216E4CEC20F00009D8B408D037EC1EF005
:10266000216E21C0A0F02104D8A4F3D72104D8A45E
:102670001200010E0001C86F3F4A402A12004CECC4
:1026800020F00009D8B428D037EC1EF01A6EA00E46
:102690003F24D96E000E4020DA6E1AC0DFFF030E11
:1026A000156E3FC016F0A00E3F24D96E000E4020DC
:1026B000DA6EDF50EEEC1CF03F501A6E40501B6E8D
:1026C0003F4A402AA00E1A24D96E000E1B20DA6E53
:1026D000040EDE18D8A4D3D7FF0E1A6EFF0E1B6EA1
:1026E0003FC01CF040C01DF01A501C261B501D227C
:1026F000A00E1C24D96E000E1D20DA6E040EDE180A
:10270000D8B402D0010E01D0000E0001C86F000144
:10271000C8510001D8A412004250100D000EF3243D
:102720001F6E050EF420206E1FC011F020C012F0A5
:102730007BEC11F020EE0FF01F50D9262050DA224A
:10274000DF50D8B41200010E4224116E126A000E3E
:102750001222000E146E0A0E136E3DEC1BF0115087
:10276000426E120012C0D9FF13C0DAFFDF5050ECE6
:102770001FF020EE0DF01250D9261350DA22DF5050
:10278000146E20EE01F01250D9261350DA22DF50D9
:10279000141050EC1FF020EE02F01250D926135006
:1027A000DA22DF5050EC1FF020EE03F01250D92651
:1027B0001350DA22DF50300F50EC1FF020EE04F0FF
:1027C0001250D9261350DA22DF5050EC1FF020EEC1
:1027D00005F01250D9261350DA22DF5050EC1FF0CA
:1027E000000E186E000E176E11D0060E1724146E10
:1027F000000E1820156E14501224D96E1550132097
:10280000DA6EDF5050EC1FF0174A182A20EE0DF058
:102810001250D9261350DA22DF50146E156A145064
:10282000175C1850800A166E1550800A1658D8A0EA
:10283000DCD720EE0BF01250D9261350DA22DF50ED
:1028400050EC1FF020EE0CF01250D9261350DA2273
:10285000DF5050EC1FF0010E0101DC6F010E010191
:10286000DD6F12001EC020F0216A226A1D3420365E
:1028700001E3218020502A6E2A50D8A409D0000EEE
:102880001C6E000E1D6E000E1E6E000E1F6E1200DE
:10289000170E206E1CC021F01DC022F01EC023F0B8
:1028A0002028246E04D0D890233222322132242EC4
:1028B000FAD72150256E1D8EFF0E1C16FF0E1D1619
:1028C000000E1E161C50266E1D50276E1E50286EC0
:1028D000296A8E0E2A5E2AAE16D02A50800A8F0FE1
:1028E000D8B009D0000E1C6E000E1D6E000E1E6EBC
:1028F000000E1F6E1200D89029322832273226325D
:102900002A3EF9D715D0170E2A640FD0000E1C6E80
:10291000000E1D6E000E1E6E000E1F6E1200D8906F
:1029200026362736283629362A062A50D8A4F7D73D
:102930002550D8B408D0291E281E271E266C000E4C
:1029400027222822292226C01CF027C01DF028C0DB
:102950001EF029C01FF012001BC01FF0206A216A60
:102960001A341F3601E320801F50226E2250D8A453
:1029700007D0000E196E000E1A6E000E1B6E1200AC
:102980001EC01FF0206A216A1D341F3601E320801B
:102990001F50276E2750D8A407D0000E196E000EC6
:1029A0001A6E000E1B6E120027507B0F22261BC0D2
:1029B00027F01E50271A800E27161A8E1D8EFF0E26
:1029C0001C16FF0E1D16000E1E16000E236E000EA6
:1029D000246E000E256E070E266E19A006D01C5020
:1029E00023261D5024221E502522D8901B321A3235
:1029F0001932D8901C361D361E36262EEED7090EFB
:102A0000266E19A006D01C5023261D5024221E50CD
:102A10002522D8901B321A321932D890253224320E
:102A20002332262EEED723C011F024C012F025C089
:102A300013F022C014F027C015F0A8EC17F011C055
:102A400019F012C01AF013C01BF01200010E376EFD
:102A500051D035C032F036C033F0360E346E75ECDE
:102A60001BF068D035C032F036C033F0360E346E0D
:102A700075EC1BF05FD035C032F036C033F0360E47
:102A8000346E75EC1BF056D035C032F036C033F0E2
:102A9000360E346E75EC1BF04DD035C032F036C0BA
:102AA00033F0360E346E75EC1BF044D035C032F086
:102AB00036C033F0360E346E75EC1BF03BD035C0AB
:102AC00032F036C033F0360E346E75EC1BF032D077
:102AD00035C032F036C033F0360E346E75EC1BF074
:102AE00029D035C032F036C033F0350E346E75EC77
:102AF0001BF020D020EE05F03550D9263650DA22D2
:102B0000DF50250AD8B4DBD7160AD8B4E1D7710A4A
:102B1000D8B4BAD7010AD8B4C9D7050AD8B4ABD744
:102B20000E0AD8B496D71B0AD8B4B7D7090AD8B4B6
:102B300099D7D7D7375012002AC02EF02F6A306AA3
:102B400029342E3601E32F802E50356E3550D8A40F
:102B500007D0000E286E000E296E000E2A6E12009D
:102B60002DC02EF02F6A306A2C342E3601E32F80D0
:102B70002E50366E3650D8A407D0000E286E000EA8
:102B8000296E000E2A6E1200000E326E000E336E99
:102B9000000E346E3650890F355E2AC036F02D5047
:102BA000361A800E3616298EFF0E2816FF0E2916AD
:102BB000000E2A162C8EFF0E2B16FF0E2C16000E62
:102BC0002D16180E316ED8903236333634362B50DF
:102BD000285C2C5029582D502A58D8A007D02B50AB
:102BE000285E2C50295A2D502A5A3280D8902836E7
:102BF00029362A36312EE7D732C011F033C012F011
:102C000034C013F035C014F036C015F0A8EC17F03E
:102C100011C028F012C029F013C02AF01200010ED2
:102C20000001F96F57D0F7C0EBF0F8C0ECF09AEC68
:102C300010F04DD0F7C035F0F8C036F094EC0FF03E
:102C400046D0F7C035F0F8C036F026EC15F03FD08E
:102C5000F7C035F0F8C036F081EC16F038D0F7C088
:102C600035F0F8C036F003EC1BF031D0F7C0F1F0CE
:102C7000F8C0F2F030EC08F02AD0000120EE04F0A9
:102C8000F751D926F851DA22DF503F0AD8B4CBD712
:102C90007D0AD8B4E4D7010AD8B4D3D7110AD8B47E
:102CA000C9D7010AD8B4D4D70B0AD8B4DFD726D0F5
:102CB000000120EE01F0F751D926F851DA22100E6A
:102CC000DF6EF7C035F0F8C036F0EBEC16F000011F
:102CD000F96F14D0000120EE01F0F751D926F85118
:102CE000DA22DF50100AD8B409D0300AD8B4C5D7D8
:102CF000100AD8B403D0700AD8B4DAD70001F95159
:102D00001200010E376E48D035C032F036C033F0B5
:102D1000360E346E75EC1BF05CD035C032F036C028
:102D200033F0360E346E75EC1BF053D035C032F0F4
:102D300036C033F0360E346E75EC1BF04AD035C019
:102D400032F036C033F0360E346E75EC1BF041D0E5
:102D500035C032F036C033F0360E346E75EC1BF0F1
:102D600038D035C032F036C033F0360E346E75ECE4
:102D70001BF02FD035C032F036C033F0360E346E33
:102D800075EC1BF026D035C032F036C033F0350E6E
:102D9000346E75EC1BF01DD020EE05F03550D926B1
:102DA0003650DA22DF503F0AD8B4AED77C0AD8B406
:102DB000BDD7080AD8B4B1D7070AD8B4C0D7010A1A
:102DC000D8B4C6D71F0AD8B4CCD7060AD8B4D2D73D
:102DD000DAD737501200010E376E48D020EE01F0DE
:102DE0003550D9263650DA22200EDF6E20EE0EF056
:102DF0003550D9263650DA22020E36D020EE01F0B8
:102E00003550D9263650DA22200EDF6E20EE0EF035
:102E10003550D9263650DA22030E26D035C032F08E
:102E200036C033F0310E346E75EC1BF02FD020EE2F
:102E300001F03550D9263650DA22DF50300AD8B4A6
:102E4000CDD7700AD8B4DAD7E9D720EE01F03550E3
:102E5000D9263650DA22100EDF6E20EE0EF03550F5
:102E6000D9263650DA22010EDF6E10D020EE0EF099
:102E70003550D9263650DA22DF50010AD8B4D7D7D8
:102E8000030AD8B4E2D7010AD8B4DFD735C030F08E
:102E900036C031F05CEC1CF037501200070E126E99
:102EA000D00E116EB9EC1FF08D92899A300EA7ECFE
:102EB0001CF0000E126EC80E116EB9EC1FF0300E31
:102EC000A7EC1CF0000E126E040E116EB9EC1FF090
:102ED000300EA7EC1CF0000E126E020E116EB9EC53
:102EE0001FF0280EA7EC1CF0000E126E020E116EE1
:102EF000B9EC1FF0280E22EC20F0000E126E020E2C
:102F0000116EB9EC1FF0080E22EC20F0000E126ECC
:102F1000020E116EB9EC1FF0010E22EC20F0000E33
:102F2000126E280E116EB9EC1FF0060E22EC20F086
:102F3000000E126E020E116EB9EC1FF00C0E22EC98
:102F400020F0000E126E020E116EB9EC1FF012008E
:102F50001450D8B405D0115012101310D8A40CD0AE
:102F6000000E116E000E126E000E136E1200142A67
:102F7000D890133212321132000E1114166E000E58
:102F80001214176EFE0E1314186E16501710181028
:102F9000D8B40CD0ECD7142A010E1126000E122240
:102FA000000E1322D890133212321132000E111477
:102FB000166E000E1214176EFF0E1314186E1650B4
:102FC00017101810D8B406D0E6D71406D8901136CA
:102FD0001236133612BE03D0020E1460F6D714A0B8
:102FE000129ED8901432145013121550D8A4138E78
:102FF00011C011F012C012F013C013F0120020EE35
:1030000002F03250D9263350DA2200C1DFFF20EE21
:1030100003F03250D9263350DA2201C1DFFF20EE0F
:1030200004F03250D9263350DA223F0EDF6E20EE04
:1030300005F03250D9263350DA22480EDF6E000EEA
:10304000376E000E366E37BE06D037501FE1040EC5
:10305000365CD8B01BD0010E3624F66E100E372029
:10306000F76EF86A000EF822060E3624346E000E53
:103070003720356E34503224D96E35503320DA6E15
:103080000800F5CFDFFF364A372ADDD720EE0DF0F6
:103090003250D9263350DA22040EDF6E32C030F0BF
:1030A00033C031F05CEC1CF0120020EE02F0325024
:1030B000D9263350DA2200C1DFFF20EE03F0325070
:1030C000D9263350DA2201C1DFFF20EE04F032505E
:1030D000D9263350DA223F0EDF6E20EE05F0325053
:1030E000D9263350DA22460EDF6E000E376E000E00
:1030F000366E37BE06D037501FE1040E365CD8B0AE
:103100001BD0070E3624F66E100E3720F76EF86AC5
:10311000000EF822060E3624346E000E3720356E6F
:1031200034503224D96E35503320DA6E0800F5CF92
:10313000DFFF364A372ADDD720EE0DF03250D92690
:103140003350DA22040EDF6E32C030F033C031F07B
:103150005CEC1CF01200016E45D00001FE514D18D0
:10316000D8A402D0010E01D0000E476E12004750C5
:10317000D8B4120002010051010D020EF324D96EE1
:10318000020EF420DA6E4EC0DFFF020100297F0B31
:103190000201006F040E4E18D8A41200000E476EF4
:1031A00012000301005103010119D8B411D0030129
:1031B0000151010D020EF324D96E030EF420DA6ED4
:1031C000DF50C96E030101297F0B0301016F12005B
:1031D000040EC96E1200010E0101DC6F000E010128
:1031E000DD6F12000150000AD8B4B7D7010AD8B475
:1031F000D8D7030AD8B4BBD7010AD8A41200EBD79A
:1032000013AE16D011C017F012C018F013C019F089
:10321000171E181E191E172A000E18221922000E3A
:103220001724116E000E1820126E800E1920136ED6
:1032300016AE16D014C017F015C018F016C019F04D
:10324000171E181E191E172A000E18221922000E0A
:103250001724146E000E1820156E800E1920166E9D
:10326000000E111A000E121A800E131A000E141AF4
:10327000000E151A800E161A1450115C15501258B3
:1032800016501358D8B002D0D8901200D88012002F
:10329000E9C035F0EAC036F0EBC037F0D0EC19F0F9
:1032A00035C0DAF036C0DBF037C0DCF082EC1EF05F
:1032B000DAC0DDF0DBC0DEF0DCC0DFF0E9C0E0F05A
:1032C000EAC0E1F0EBC0E2F031EC0DF0DDC0ECF073
:1032D000DEC0EDF0DFC0EEF0E9C0DDF0EAC0DEF008
:1032E000EBC0DFF0ECC0E0F0EDC0E1F0EEC0E2F0EA
:1032F00031EC0DF0DDC0E9F0DEC0EAF0DFC0EBF04C
:10330000E9C035F0EAC036F0EBC037F0D0EC19F088
:1033100035C0E9F036C0EAF037C0EBF01200000E1D
:103320001A6E000E196E21D019501524176E1A50FE
:103330001620186E17C0F6FF18C0F7FF000EF86EC3
:103340000F0EF76403D00800F55005D0F6CFE9FF63
:10335000F7CFEAFFEF502DEC20F0000E126E020EB8
:10336000116EB9EC1FF0194A1A2A19501524176E5C
:103370001A501620186E17C0F6FF18C0F7FF000E7F
:10338000F86E0F0EF76403D00800F55005D0F6CFA5
:10339000E9FFF7CFEAFFEF500009D8B41200C4D715
:1033A00035C011F036C012F037C013F03B0E146E6A
:1033B000000E156E50EC1AF03CAE07D0000E356EC4
:1033C000000E366E000E376E12003C5004E1150EF2
:1033D0003B5CD8A007D035C035F036C036F037C0DA
:1033E00037F0120035C01CF036C01DF037C01EF09B
:1033F00032EC14F01CC02BF01DC02CF01EC02DF0C0
:103400001FC02EF08CEC1AF02BC038F02CC039F015
:103410002DC03AF038C035F039C036F03AC037F038
:10342000120093EC20F04A0E1B6E100E1C6E010E63
:103430001D6E000E1E6E82EC1CF0200E1B6E100E18
:103440001C6E020E1D6E000E1E6E82EC1CF00B0E2A
:103450001B6E100E1C6E030E1D6E000E1E6E82EC97
:103460001CF0350E1B6E100E1C6E040E1D6E000E31
:103470001E6E82EC1CF0070E1B6E100E1C6E010EF1
:103480001D6E060E1E6E82EC1CF0010E1B6E100EE1
:103490001C6E010E1D6E0F0E1E6E82EC1CF01200D3
:1034A000115012101310D8A409D014C0D9FF15C0A0
:1034B000DAFF000EDE6E000EDD6E120013507F0B81
:1034C000166E176AD8901636173614C0D9FF15C075
:1034D000DAFF16C0DEFF17C0DDFF12AE03D0166A9A
:1034E000162A01D0166A165014C0D9FF15C0DAFF8B
:1034F000DE12000EDD1214C0D9FF15C0DAFF820EF5
:10350000DE26FF0EDD2213801382138413861388B8
:10351000138A139C129E1200000E346E8E0E336EB0
:103520002EAE11D02E1E2D1E2C1E2B6C000E2C220A
:103530002D222E22010E346E06D0D8902E322D323E
:103540002C322B32332A000E2B142F6E000E2C142B
:10355000306E000E2D14316EFF0E2E14326E2F5071
:10356000301031103210D8A4E8D72BC011F02CC085
:1035700012F02DC013F033C014F034C015F0A8ECD5
:1035800017F011C02BF012C02CF013C02DF0120058
:103590004E0EF66E410EF76E000EF86E0900F5CF76
:1035A0004DF00900F5CF4EF005EE00F0A00EEE6AEA
:1035B000E806FDE104EE00F0A00EEE6AE806FDE18B
:1035C00003EE00F0820EEE6AE806FDE102EE00F086
:1035D000C20EEE6AE806FDE101EE00F0E10EEE6AD1
:1035E000E806FDE100EE60F07A0EEE6AE806FDE125
:1035F00000EE3FF00E0EEE6AE806FDE14F904F92AE
:1036000000010CEF20F0010E376E24D035C032F0EF
:1036100036C033F0360E346E75EC1BF02CD035C04E
:1036200032F036C033F0360E346E75EC1BF023D01A
:1036300035C032F036C033F0360E346E75EC1BF008
:103640001AD035C032F036C033F0350E346E75EC1A
:103650001BF011D020EE05F03550D9263650DA2275
:10366000DF503F0AD8B4D2D76F0AD8B4E1D7030AE3
:10367000D8B4D5D7E6D737501200000E166E12AE6A
:1036800006D0116C121ED8B0122A010E166E14AE9E
:1036900004D0136C141ED8B0142A13501410D8B4CC
:1036A00018D0010E156E04D0D89013361436152A92
:1036B00014AEFAD71350115C14501258D8A004D08D
:1036C0001350115E1450125AD89014321332152E22
:1036D000F1D71650D8B404D0116C121ED8B0122AEB
:1036E00011C011F012C012F0120020EE02F03250A0
:1036F000D9263350DA2200C1DFFF20EE03F032502A
:10370000D9263350DA2201C1DFFF20EE04F0325017
:10371000D9263350DA22150EDF6E20EE05F0325036
:10372000D9263350DA22150EDF6E20EE06F0325025
:10373000D9263350DA2234C0DFFF20EE0DF03250AC
:10374000D9263350DA22010EDF6E32C030F033C09A
:1037500031F05CEC1CF01200000E0001F06F000E66
:10376000EF6F9AEC1EF0000E0001F06F000EEF6F8D
:103770001CEC1EF0000E0001F06F000EEF6F01EC6C
:103780001EF0000E0001F06F000EEF6FE6EC1DF072
:10379000BE0E116E400E126E89EC20F0640E116E9A
:1037A0003D0E126E84EC20F0F28EF28C53EC1DF084
:1037B00011EC1AF0A9EC1FF0120020EE02F03250CA
:1037C000D9263350DA2200C1DFFF20EE03F0325059
:1037D000D9263350DA2201C1DFFF20EE04F0325047
:1037E000D9263350DA22060EDF6E20EE05F0325075
:1037F000D9263350DA22060EDF6E20EE0DF032505D
:10380000D9263350DA22000EDF6E32C030F033C0DA
:1038100031F05CEC1CF01200000E376E000E366EBC
:1038200033503410D8B41CD0010E356E04D0D8906B
:1038300033363436352A34AEFAD7D8903636373662
:103840003350315C34503258D8A005D03350315EFB
:103850003450325A3680D89034323332352EEDD748
:1038600036C031F037C032F01200000E8A6E000E02
:10387000896E000E0F013C6F000E8D6E000E8C6E77
:10388000000E8B6E020E0F01386F000E0F01396FA4
:10389000000E0F013A6F000E0F013B6FFE0E616EBE
:1038A000000E956E000E966E9E0E936E980E946EA0
:1038B000C20E926EF19E12000ED030C018F031C0D0
:1038C00019F04DEC12F017D030C012F031C013F0E7
:1038D000B2EC13F010D020EE0EF03050D92631505B
:1038E000DA22DF50010AD8B4E8D7030AD8B403D0EB
:1038F000010AD8B4E9D7000E126E140E116EB9EC9D
:103900001FF01200000E1F6E09D0000E05D0400EF1
:1039100003D0140E01D0540E1F6E0DD01D50010A9D
:10392000D8B4F3D7030AD8B4F2D7010AD8B4F1D780
:10393000070AD8B4F0D71F501E24800922EC20F0CB
:103940001BC015F01CC016F08FEC19F01200136E9E
:1039500013AE02D08C8601D08C9613AC02D08C842E
:1039600001D08C9413AA02D08C8201D08C9213A81F
:1039700002D08C8001D08C90898A000E126E020ECB
:10398000116EB9EC1FF0899A000E126E020E116EC4
:10399000B9EC1FF012001DD04150100D000EF324A1
:1039A0000001F76F050EF4200001F86F0FEC16F020
:1039B0000009D8B41200010E4124116E126A000EE3
:1039C0001222000E146E0A0E136E3DEC1BF0115005
:1039D000416E42504118D8B41200DED7176E000E67
:1039E000186E09D0000E05D0400E03D0140E01D081
:1039F000540E186E0DD01550010AD8B4F3D7030A2F
:103A0000D8B4F2D7010AD8B4F1D7070AD8B4F0D79E
:103A100018501624800922EC20F017502DEC20F0CD
:103A200012003A503B10D8B418D0010E3C6E04D0AE
:103A3000D8903A363B363C2A3BAEFAD73A50385CFF
:103A40003B503958D8A004D03A50385E3B50395AD0
:103A5000D8903B323A323C2EF1D738C038F039C0DA
:103A600039F01200550E026E9E96C9CF02F0C7A41F
:103A70000BD0C7BAC5AC04D0030EABEC18F011D014
:103A8000010EABEC18F00DD0C7BA06D002C04DF055
:103A9000000EABEC18F005D002C04EF0020EABECFD
:103AA00018F0C6881200E7EC1FF00009D8B409D05E
:103AB00076EC20F00101016F7DEC20F00101006F38
:103AC0001200560E0101006F010E0101016F01018C
:103AD000005142EC20F00101015138EC20F056EC8D
:103AE00020F01200116E0001FF51D8B4FCD79DB830
:103AF00003D011C0ADFF13D09D984C50010D600E46
:103B0000F324D96E000EF420DA6E11C0DFFF4C2AC8
:103B10003F0E4C6402D0000E4C6E0001FF079D88E2
:103B200012006FEC20F035EC1CF068EC20F0CBECD0
:103B30001DF098EC1FF0DEEC1EF0F4EC1FF03EECF4
:103B40001FF02CEC1FF06AEC1EF0D8EC1FF0C9EC53
:103B50001FF017EC20F006EC1FF01200000EF2BE72
:103B6000010E146E1250030BAA6E11C0A9FF13C0F0
:103B7000A8FFA69EA69CA684F29E550EA76EAA0E2E
:103B8000A76EA682A6B2FED7A69414B002D0F29E6B
:103B900001D0F28E12009D9A9D98080EB86E900E7C
:103BA000AB6E240EAC6E820EAF6E060EB06E000EC3
:103BB0004C6E000E4B6E400E0001FF6F000E4A6E01
:103BC000000E496E000E486E9D8A1200EFC03DF057
:103BD000F0C03EF0D8903E323D32D8903E323D3279
:103BE0003D500F01556FEFC03DF0030E3D163D3ABD
:103BF000F00E3D160F015451CF0B3D100F01546FC5
:103C00001200EFC03DF0F0C03EF0D8903E323D32A1
:103C1000D8903E323D323D500F01586FEFC03DF01D
:103C2000030E3D163D3AF00E3D160F015751CF0BD6
:103C30003D100F01576F1200EFC03DF0F0C03EF095
:103C4000D8903E323D32D8903E323D323D500F0149
:103C50005E6FEFC03DF0030E3D163D3AF00E3D168F
:103C60000F015D51CF0B3D100F015D6F1200000E73
:103C7000116E0201005102010119D8B410D00201E5
:103C80000151010D020EF324D96E020EF420DA6EFA
:103C9000DF50116E020101297F0B0201016F1150EB
:103CA0001200400E0001FF6113D04B50010D600E59
:103CB000F324D96E000EF420DA6EDF50AD6E4B2A7D
:103CC0003F0E4B6402D0000E4B6E0001FF2B120022
:103CD0009D9812000C0E0F015D6F000E0F015B6FBF
:103CE000800E0F015C6F010E0F015A6F000E0F0165
:103CF0005E6F000E0F015F6F0F0149513F0B80098E
:103D0000496F12000001DA510001DB110001DC11E2
:103D1000D8B409D0000E0001DA1B000E0001DB1B35
:103D2000800E0001DC1BDAC0DAF0DBC0DBF0DCC0A7
:103D3000DCF01200EFC03DF0F0C03EF0D8903E3213
:103D40003D32D8903E323D323D50BE6EEFC03DF028
:103D5000030E3D163D3AF00E3D16BD50CF0B3D1003
:103D6000BD6E12000001C24BC32BF50E0001C25DF7
:103D7000010E0001C359D8A0120089B002D0898079
:103D800001D08990000E0001C36F000EC26F1200B7
:103D9000ABA202D0AB9EAB8E4A50010D820EF32433
:103DA000D96E020EF420DA6EAECFDFFF4A2A3F0E44
:103DB0004A6402D0000E4A6E482A1200790E0F01A2
:103DC000516FF90E0F01526F000E0F01536F7E906D
:103DD0007D80520E116E410E126E84EC20F0A2EC2A
:103DE00020F01200FE0E146EFF0E156E1350166EAC
:103DF000176A145016261550172216501124D96E22
:103E000017501220DA6E460EDF6E1200980E000177
:103E1000FE6F000EC76E260EC66E000EC56EC58004
:103E2000600ECB6EFE0ECA6EFEC0C8FF9E969D86CB
:103E300012002B502D02F3CF2FF0F4CF30F02B5087
:103E40002E02F35030262C502D02F35030262FC076
:103E50002BF030C02CF012002C0E666E000E646E3B
:103E6000800E656E000E636E080E676E000E686E43
:103E70000F014951E70B1009496F12000C0EBD6E7E
:103E8000000EB66E800EB76E010EB96E000EBE6EDD
:103E9000000EBF6E0F014951FC0B0209496F120061
:103EA000116E03010051010D020EF324D96E030EB1
:103EB000F420DA6E11C0DFFF030100297F0B03013C
:103EC000006F120019C011F01AC012F0136A8E0EA2
:103ED000146E000E156EA8EC17F011C019F012C088
:103EE0001AF013C01BF012000001FA510001FB117F
:103EF000D8B4120001D812000500FA6E0001FA5180
:103F0000FD6EFB51FE6EFF6AFA5012000001FC517B
:103F10000001FD11D8B4120001D812000500FA6E9C
:103F20000001FC51FD6EFD51FE6EFF6AFA50120059
:103F3000010EBA6E4A0EBB6E000EBC6E9E929D8242
:103F4000540E116E410E126E89EC20F0A5EC20F09B
:103F5000120001C1DAF00001DB6B020E0001DC6F20
:103F6000020E0001DD6F040E0001DE6F65EC0EF045
:103F7000120007D00001C951D8B406D01106D8A04C
:103F80001206000E0001C96F11501210D8B41200B1
:103F9000F1D70C0E0F01546F000E0F01556F000E7C
:103FA0000F01566F0F014851F30B0809486F1200BB
:103FB0000C0E0F01576F000E0F01586F000E0F010E
:103FC000596F0F014851FC0B0209486F1200010E96
:103FD000126E000E116E00EC20F0590AD8A402D027
:103FE000010E1200000E1200000E0F014A6F0F01A9
:103FF0004B69000E0F014C6F7E949FEC20F0120075
:104000001250030BAA6E11C0A9FFA69CA69EA68003
:1040100000F000F0A850120091EC1DF0ACEC1BF089
:104020001EEC13F0CBEC1CF0A8EC20F0F9D7010E3D
:10403000C26E000EC16E060EC06E000EC36E000E84
:10404000C46E1200146E8D92899A1450A7EC1CF065
:104050001438F00BA7EC1CF01200146E8D82899AB4
:104060001450A7EC1CF01438F00BA7EC1CF0120055
:10407000156E010E126E020E116E15C013F0AEEC2D
:104080001DF01200156E010E126E010E116E15C09C
:1040900013F0AEEC1DF012000201005102010119F3
:1040A000D8B402D0010E1200000E1200010E126EE2
:1040B000000E116E590E136EAEEC1DF012000001D1
:1040C000C64BC72B010E0001C96F010E466E1200D0
:1040D000700ED36E040ED26EC00E9B6E1200D09E78
:1040E0009F969F989F9A7F909F921200010E126E4A
:1040F000020E116E00EC20F01200010E126E010E85
:10410000116E00EC20F0120011C0FAF012C0FBF0AA
:10411000120011C0FCF012C0FDF01200126E12501D
:1041200072EC1DF012008D804EEC17F012007E90A4
:1041300074EC1FF012009E9286EC1FF012000F012B
:104140004A8512000F0151851200BA841200AA5547
:0641500012001200120033
:020000040020DA
:08000000FFFFFFFFFFFFFFFF00
:020000040030CA
:0E000000FF291F30FF9F85FF0FC00FE00F404C
:00000001FF
