:040000005DEF00F0C0
:100008004F82FACF03F0FBCF04F0E9CF05F0EACF37
:1000180006F0E1CF07F0E2CF08F0D9CF09F0DACF48
:100028000AF0F3CF0BF0F4CF0CF0F6CF0DF0F7CFCA
:100038000EF0F8CF0FF0F5CF10F0F2BC9DA603D06C
:100048009EB681EC27F0F2BC9DA803D09EB883EC45
:1000580028F0F2BC9DAA03D09EBA58EC29F0F2BC55
:100068007DA003D07EB0C0EC2BF0F2BC9DA203D0E3
:100078009EB2C4EC2BF010C0F5FF0FC0F8FF0EC005
:10008800F7FF0DC0F6FF0CC0F4FF0BC0F3FF0AC06A
:10009800DAFF09C0D9FF08C0E2FF07C0E1FF06C0C8
:1000A800EAFF05C0E9FF04C0FBFF03C0FAFF4F9257
:0600B8001100ABEF22F085
:1010000000322E3032004D583130005061736F7312
:10101000206D6F746F723A205F5F5F5F5F2020000A
:1010200049443A205F5F20506F736963696F6E3A7D
:10103000205F5F200053454E20413A205F5F5F5F95
:1010400020423A205F5F5F5F200046573A204246C9
:101050005F5F5F5F2048573A205F5F5F5F2000421D
:101060007261696E696163204669726D776172654C
:101070000000000E00016C6F000E6B6F010E00018E
:101080006A6F45EF0EF062C032F063C033F0AFEC30
:1010900024F03F0E326E530E336E520E23EC22F0CC
:1010A00096EF0EF062C032F063C033F0360E346E4D
:1010B00013EC24F096EF0EF001011A51D8A427EF9B
:1010C0000EF062C032F063C033F0AFEC24F00101E7
:1010D0001751D8A408D0160E156E010E166E0AEC24
:1010E00025F096EF0EF04D0E326E000E336E520E5E
:1010F00023EC22F096EF0EF001011A51D8A427EF4D
:101100000EF062C032F063C033F0AFEC24F00001A7
:1011100020EE06F06251D9266351DA22DF50000139
:10112000646FD00E0001642500016B6F00016C6BD1
:10113000FF0E6C23160E156E010E166E6BC064F05A
:101140006CC065F0D890000164376537080E000167
:101150006427000E6523280E00016425D96E010E58
:1011600000016521DA6EDECF66F0DDCF67F021EE9B
:1011700022F0DECF68F0DDCF69F00001681F691F43
:10118000684B692B0001665100016825176E00014C
:10119000675100016921186E14EC2BF096EF0EF0E8
:1011A00001011A51D8A427EF0EF062C032F063C0DB
:1011B00033F0AFEC24F0000120EE06F06251D926A6
:1011C0006351DA22DF500001646FD00E0001642504
:1011D00000016B6F00016C6BFF0E6C236BC064F041
:1011E0006CC065F0D890000164376537080E0001C7
:1011F0006427000E6523280E00016425D96E010EB8
:1012000000016521DA6E22C1DEFF23C1DDFF22C1AC
:1012100015F023C116F000016B51AAEC25F096EFF2
:101220000EF001011A51D8A427EF0EF062C032F07F
:1012300063C033F0AFEC24F0160E156E010E166E7F
:1012400089EC26F096EF0EF001011A51D8A427EF91
:101250000EF062C032F063C033F0AFEC24F0160E33
:10126000156E010E166E1AEC26F096EF0EF00101C7
:101270001A51D8A427EF0EF062C032F063C033F0E9
:10128000AFEC24F0160E156E010E166E3FEC26F034
:1012900096EF0EF001011A51D8A427EF0EF062C0AC
:1012A00032F063C033F0AFEC24F0160E156E010E71
:1012B000166E64EC26F096EF0EF001011A51D8A4D8
:1012C00027EF0EF062C032F063C033F0AFEC24F0D1
:1012D000000120EE06F06251D9266351DA22DF5078
:1012E0000001646FD00E00016425116E126AFF0EBA
:1012F0001222030E146EE80E136ED1EC29F00001D9
:1013000020EE09F06251D9266351DA22DF50000144
:10131000656F666B1150000165271250000166234E
:10132000000120EE07F06251D9266351DA22DF5026
:101330000001676FD00E00016725116E126AFF0E63
:101340001222000E146E640E136ED1EC29F01150AF
:1013500000016527125000016623000120EE08F00D
:101360006251D9266351DA22DF500001686FD00E36
:1013700000016825116E126AFF0E1222000E146E13
:101380000A0E136ED1EC29F011500001652712509E
:1013900000016623D00E0001652500016B6FFF0E72
:1013A0000001662100016C6F160E156E010E166E9F
:1013B0006BC017F06CC018F014EC2BF096EF0EF029
:1013C00001011A51D8A427EF0EF062C032F063C0B9
:1013D00033F0AFEC24F0000120EE06F06251D92684
:1013E0006351DA22DF500001646FD00E00016425E2
:1013F000116E126AFF0E1222030E146EE80E136EA7
:10140000D1EC29F0000120EE09F06251D926635198
:10141000DA22DF500001656F666B1150000165270D
:10142000125000016623000120EE07F06251D92618
:101430006351DA22DF500001676FD00E000167258B
:10144000116E126AFF0E1222000E146E640E136EDD
:10145000D1EC29F0115000016527125000016623DC
:10146000000120EE08F06251D9266351DA22DF50E4
:101470000001686FD00E00016825116E126AFF0E20
:101480001222000E146E0A0E136ED1EC29F01150C8
:1014900000016527125000016623D00E000165256A
:1014A00000016B6FFF0E0001662100016C6F160ECC
:1014B000156E010E166E6BC064F06CC065F0000115
:1014C000641F651F644B652B64C017F065C018F07E
:1014D00014EC2BF096EF0EF062C032F063C033F0E4
:1014E000AFEC24F0000120EE06F06251D9266351E2
:1014F000DA22DF500001646FD00E00016425116E06
:10150000126AFF0E1222030E146EE80E136ED1EC57
:1015100029F0000120EE09F06251D9266351DA2248
:10152000DF500001656F666B115000016527125096
:1015300000016623000120EE07F06251D9266351B5
:10154000DA22DF500001676FD00E00016725116EAF
:10155000126AFF0E1222000E146E640E136ED1EC8E
:1015600029F0115000016527125000016623000187
:1015700020EE08F06251D9266351DA22DF500001D3
:10158000686FD00E00016825116E126AFF0E1222DC
:10159000000E146E0A0E136ED1EC29F011500001EA
:1015A0006527125000016623D00E00016525000159
:1015B0006B6FFF0E0001662100016C6F6BC064F061
:1015C0006CC065F0D890000164376537180E0001D3
:1015D000642500016B6F010E0001652100016C6F35
:1015E0006BC01DF16CC01EF1DC0E01011D5D010E12
:1015F00001011E59D8A005D0010E01011E6FDB0E9E
:101600001D6F1DC115F01EC116F094EC2AF08ED38B
:10161000000120EE06F06251D9266351DA22DF5034
:101620000001646FD00E0001642500016B6F0001A2
:101630006C6BFF0E6C2320D062C032F063C033F0BD
:10164000AFEC24F00DD062C032F063C033F0AFECE9
:1016500024F006D062C032F063C033F0AFEC24F067
:101660006BC021F163D362C032F063C033F0370E38
:10167000346E13EC24F05AD36BC064F06CC065F088
:1016800000016551000AD8A4EED700016451000A98
:10169000D8B4D2D7010AD8B4D6D7030AD8B4DAD787
:1016A000E2D762C032F063C033F0AFEC24F0000147
:1016B00020EE06F06251D9266351DA22DF50000194
:1016C000646FD00E00016425116E126AFF0E1222A3
:1016D000000E146E0A0E136ED1EC29F0000120EEFC
:1016E00007F06251D9266351DA22DF500001656F9D
:1016F000666B115000016527125000016623D00E61
:101700000001652500016B6FFF0E000166210001DD
:101710006C6F00016C5105E10B0E00016B5DD8A0F0
:1017200005D0000E00016C6F0A0E6B6F000E0101F8
:10173000446F6BC045F1000E206E380E216E410ED5
:10174000226E0101455108EC2AF019C01DF01AC0A3
:101750001EF01BC01FF012EC1EF01DC02CF01EC0AE
:101760002DF01FC02EF098EC1DF02CC03BF02DC0CA
:101770003CF0DFEC27F0000E206E380E216E410E9B
:10178000226E0101455108EC2AF019C01DF01AC063
:101790001EF01BC01FF012EC1EF01DC02CF01EC06E
:1017A0002DF01FC02EF098EC1DF02CC03BF02DC08A
:1017B0003CF0C1EC27F00101455149EC2BF0B6D2C9
:1017C00062C032F063C033F0AFEC24F0000120EED1
:1017D00004F06251D9266351DA22520EDF6E000105
:1017E00020EE05F06251D9266351DA22430EDF6EF6
:1017F000000120EE0AF06251D9266351DA2222C19B
:1018000018F023C119F0000E1B6E0A0E1A6E60EC60
:1018100027F01850DF6E000120EE09F06251D92642
:101820006351DA22000E146E0A0E136E000110EEE0
:101830000AF06251E1266351E222E7500001646F31
:10184000656B0001641F651F644B652B010122510C
:1018500000016425116E0101235100016521126E02
:1018600033EC25F011C018F012C019F0000E1B6EF9
:101870000A0E1A6E60EC27F01850DF6E000120EEA1
:1018800008F06251D9266351DA22000E146E640EFC
:10189000136E000110EE0AF06251E1266351E2225C
:1018A000E7500001646F656B000110EE09F06251B2
:1018B000E1266351E222E7500001666F00016651A4
:1018C00000016427000E65230001641F651F644B3F
:1018D000652B0101225100016425116E0101235184
:1018E00000016521126E33EC25F011C018F012C012
:1018F00019F0000E1B6E0A0E1A6E60EC27F01850DD
:10190000DF6E000120EE07F06251D9266351DA2222
:10191000030E146EE80E136E000110EE0AF0625111
:10192000E1266351E222E7500001646F656B00011C
:1019300010EE09F06251E1266351E222E750000106
:10194000666F0001665100016427000E65230001E7
:1019500010EE08F06251E1266351E222E7500001E7
:10196000676F0001675100016427000E65230001C5
:10197000641F651F644B652B010122510001642522
:10198000116E0101235100016521126E33EC25F027
:1019900011C018F012C019F0000E1B6E0A0E1A6E5C
:1019A00060EC27F01850DF6E000120EE06F0625167
:1019B000D9266351DA22270E146E100E136E000121
:1019C00010EE0AF06251E1266351E222E750000175
:1019D000646F656B000110EE09F06251E1266351FE
:1019E000E222E7500001666F0001665100016427A2
:1019F000000E6523000110EE08F06251E1266351EC
:101A0000E222E7500001676F00016751000164277F
:101A1000000E6523000110EE07F06251E1266351CC
:101A2000E222E7500001686F00016851000164275D
:101A3000000E65230001641F651F644B652B0101C7
:101A4000225100016425116E01012351000165211D
:101A5000126E33EC25F011C018F012C019F0000E10
:101A60001B6E0A0E1A6E60EC27F01850DF6E000134
:101A700020EE06F06251D9266351DA22300EDF26BD
:101A8000000120EE07F06251D9266351DA22300EB0
:101A9000DF26000120EE08F06251D9266351DA22D8
:101AA000300EDF26000120EE09F06251D926635185
:101AB000DA22300EDF26000120EE0AF06251D9262C
:101AC0006351DA22300EDF26000120EE0DF0625164
:101AD000D9266351DA22050EDF6E62C030F063C092
:101AE00031F0DEEC24F022D1000120EE0DF0625145
:101AF000D9266351DA22030EDE18D8B409D062C0A9
:101B000032F063C033F0370E346E13EC24F00ED194
:101B100062C032F063C033F0AFEC24F0000120EE7D
:101B200006F06251D9266351DA22DF500001646F5A
:101B3000D00E00016425116E126AFF0E1222000EF3
:101B4000146E640E136ED1EC29F0000120EE08F043
:101B50006251D9266351DA22DF500001656F666B4E
:101B6000115000016527125000016623000120EE8C
:101B700007F06251D9266351DA22DF500001676F06
:101B8000D00E00016725116E126AFF0E1222000EA0
:101B9000146E0A0E136ED1EC29F011500001652766
:101BA000125000016623D00E0001652500016B6F05
:101BB000FF0E0001662100016C6F6BC018F100017F
:101BC0006B513FEC2BF0B2D001011A51D8A43FD099
:101BD00062C032F063C033F0AFEC24F022C128F1D0
:101BE00023C129F122C115F023C116F0B6EC2AF069
:101BF0009DD001011A51D8A42AD062C032F063C02E
:101C000033F0AFEC24F022C12AF123C12BF122C121
:101C100015F023C116F072EC2AF088D001011A5198
:101C2000D8A415D062C032F063C033F0AFEC24F01A
:101C300022C12CF123C12DF122C115F023C116F0D0
:101C400083EC2AF073D001011A51D8B404D0000EED
:101C500000016A6F6BD062C032F063C033F0AFEC4A
:101C600024F022C12EF123C12FF122C115F023C18E
:101C700016F0A5EC2AF05AD062C032F063C033F0FF
:101C8000350E346E13EC24F051D0000120EE05F037
:101C90006251D9266351DA22DF50250AD8B401D522
:101CA000150AD8B491D7010AD8B4A3D7030AD8B477
:101CB000B5D7010AD8B4C7D70D0AD8B452EF08F087
:101CC000010AD8B443EF08F07E0AD8B437EF09F020
:101CD000030AD8B4E0EF09F0010AD8B471D5070AB5
:101CE000D8B411EF09F0020AD8B45DEF09F0010A87
:101CF000D8B47CEF08F00F0AD8B45CEF08F0070AFC
:101D0000D8B4F2D61F0AD8B4D0EF08F0020AD8B47B
:101D100024EF09F0010AD8B46CEF0AF0090AD8B42C
:101D20004AEF09F03E0AD8B473D4A6D700016A512D
:101D30001200440E1724196E000E18201A6E20EEA1
:101D4000C4F01750D9261850DA2219C0DEFF1AC085
:101D5000DDFF20EE01F01750D9261850DA22000ED0
:101D6000DF6E20EE02F01750D9261850DA22000E4E
:101D7000DF6E20EE03F01750D9261850DA22000E3D
:101D8000DF6E20EE0CF01750D9261850DA22000E24
:101D9000DE6E000EDD6E20EE05F01750D9261850CD
:101DA000DA22D60EDE6E010EDD6E20EE07F0175041
:101DB000D9261850DA227C0EDE6E010EDD6E20EE82
:101DC0000EF01750D9261850DA22F40EDE6E7E0E71
:101DD000DD6E20EE12F01750D9261850DA22000ED0
:101DE000DE6E000EDD6E20EE14F01750D92618506E
:101DF000DA220A0EDE6E000EDD6E20EE16F01750AF
:101E0000D9261850DA22140EDE6E000EDD6E20EE9A
:101E100018F01750D9261850DA221E0EDE6E000E6A
:101E2000DD6E000E206E000E1F6E20BE06D020500C
:101E300038E10A0E1F5CD8B034D0900E196E010E36
:101E40001A6E010E1F24116E000E2020126E000E5D
:101E5000146E640E136ED1EC29F0195011261A502D
:101E600012221FC01BF020C01CF0D8901B361C365D
:101E7000080E1B26000E1C2217C01DF018C01EF0F5
:101E80001B501D261C501E22120E1D24D96E000E42
:101E90001E20DA6E11C0DEFF12C0DDFF1F4A202AAD
:101EA000C4D720EE0BF01750D9261850DA22020EB4
:101EB000DF6E20EE2FF01750D9261850DA22030ECD
:101EC000DF6E440E1724196E000E18201A6E20EED5
:101ED00034F01750D9261850DA2219C0DEFF1AC084
:101EE000DDFFA40E1724196E000E18201A6E20EEC6
:101EF00036F01750D9261850DA2219C0DEFF1AC062
:101F0000DDFF540E1724196E000E18201A6E20EEF5
:101F100039F01750D9261850DA2219C0DEFF1AC03E
:101F2000DDFFB40E1724196E000E18201A6E20EE75
:101F30003BF01750D9261850DA2219C0DEFF1AC01C
:101F4000DDFF440E1724196E000E18201A6E20EEC5
:101F50003EF01750D9261850DA2219C0DEFF1AC0F9
:101F6000DDFFB40E1724196E000E18201A6E20EE35
:101F700040F01750D9261850DA2219C0DEFF1AC0D7
:101F8000DDFF20EE53F01750D9261850DA22010E4B
:101F9000DF6E640E1724196E000E18201A6E20EEE4
:101FA00044F01750D9261850DA2219C0DEFF1AC0A3
:101FB000DDFFA40E1724196E000E18201A6E20EEF5
:101FC00046F01750D9261850DA2219C0DEFF1AC081
:101FD000DDFF540E1724196E000E18201A6E20EE25
:101FE00049F01750D9261850DA2219C0DEFF1AC05E
:101FF000DDFFB40E1724196E000E18201A6E20EEA5
:102000004BF01750D9261850DA2219C0DEFF1AC03B
:10201000DDFF540E1724196E000E18201A6E20EEE4
:102020004EF01750D9261850DA2219C0DEFF1AC018
:10203000DDFFB40E1724196E000E18201A6E20EE64
:1020400050F01750D9261850DA2219C0DEFF1AC0F6
:10205000DDFF20EE73F01750D9261850DA22030E58
:10206000DF6E840E1724196E000E18201A6E20EEF3
:1020700064F01750D9261850DA2219C0DEFF1AC0B2
:10208000DDFF440E1724196E000E18201A6E20EE84
:1020900066F01750D9261850DA2219C0DEFF1AC090
:1020A000DDFF740E1724196E000E18201A6E20EE34
:1020B00069F01750D9261850DA2219C0DEFF1AC06D
:1020C000DDFF540E1724196E000E18201A6E20EE34
:1020D0006BF01750D9261850DA2219C0DEFF1AC04B
:1020E000DDFF740E1724196E000E18201A6E20EEF4
:1020F0006EF01750D9261850DA2219C0DEFF1AC028
:10210000DDFF540E1724196E000E18201A6E20EEF3
:1021100070F01750D9261850DA2219C0DEFF1AC005
:10212000DDFF20EE93F01750D9261850DA22050E65
:10213000DF6EA40E1724196E000E18201A6E20EE02
:1021400084F01750D9261850DA2219C0DEFF1AC0C1
:10215000DDFF640E1724196E000E18201A6E20EE93
:1021600086F01750D9261850DA2219C0DEFF1AC09F
:10217000DDFF940E1724196E000E18201A6E20EE43
:1021800089F01750D9261850DA2219C0DEFF1AC07C
:10219000DDFF740E1724196E000E18201A6E20EE43
:1021A0008BF01750D9261850DA2219C0DEFF1AC05A
:1021B000DDFF940E1724196E000E18201A6E20EE03
:1021C0008EF01750D9261850DA2219C0DEFF1AC037
:1021D000DDFF740E1724196E000E18201A6E20EE03
:1021E00090F01750D9261850DA2219C0DEFF1AC015
:1021F000DDFF20EEB3F01750D9261850DA22070E73
:10220000DF6E440E1724196E000E18201A6E20EE91
:10221000A4F01750D9261850DA2219C0DEFF1AC0D0
:10222000DDFF840E1724196E000E18201A6E20EEA2
:10223000A6F01750D9261850DA2219C0DEFF1AC0AE
:10224000DDFFB40E1724196E000E18201A6E20EE52
:10225000A9F01750D9261850DA2219C0DEFF1AC08B
:10226000DDFF940E1724196E000E18201A6E20EE52
:10227000ABF01750D9261850DA2219C0DEFF1AC069
:10228000DDFFB40E1724196E000E18201A6E20EE12
:10229000AEF01750D9261850DA2219C0DEFF1AC046
:1022A000DDFF940E1724196E000E18201A6E20EE12
:1022B000B0F01750D9261850DA2219C0DEFF1AC024
:1022C000DDFF20EE63F01750D9261850DA22020EF7
:1022D000DF6E640E1724196E000E18201A6E20EEA1
:1022E00054F01750D9261850DA2219C0DEFF1AC050
:1022F000DDFF440E1724196E000E18201A6E20EE12
:1023000056F01750D9261850DA2219C0DEFF1AC02D
:10231000DDFF740E1724196E000E18201A6E20EEC1
:1023200059F01750D9261850DA2219C0DEFF1AC00A
:10233000DDFFB40E1724196E000E18201A6E20EE61
:102340005BF01750D9261850DA2219C0DEFF1AC0E8
:10235000DDFF640E1724196E000E18201A6E20EE91
:102360005EF01750D9261850DA2219C0DEFF1AC0C5
:10237000DDFF440E1724196E000E18201A6E20EE91
:1023800060F01750D9261850DA2219C0DEFF1AC0A3
:10239000DDFF20EE83F01750D9261850DA22040E04
:1023A000DF6E840E1724196E000E18201A6E20EEB0
:1023B00074F01750D9261850DA2219C0DEFF1AC05F
:1023C000DDFF640E1724196E000E18201A6E20EE21
:1023D00076F01750D9261850DA2219C0DEFF1AC03D
:1023E000DDFF940E1724196E000E18201A6E20EED1
:1023F00079F01750D9261850DA2219C0DEFF1AC01A
:10240000DDFF540E1724196E000E18201A6E20EEF0
:102410007BF01750D9261850DA2219C0DEFF1AC0F7
:10242000DDFF840E1724196E000E18201A6E20EEA0
:102430007EF01750D9261850DA2219C0DEFF1AC0D4
:10244000DDFF640E1724196E000E18201A6E20EEA0
:1024500080F01750D9261850DA2219C0DEFF1AC0B2
:10246000DDFF20EEA3F01750D9261850DA22060E11
:10247000DF6EA40E1724196E000E18201A6E20EEBF
:1024800094F01750D9261850DA2219C0DEFF1AC06E
:10249000DDFF840E1724196E000E18201A6E20EE30
:1024A00096F01750D9261850DA2219C0DEFF1AC04C
:1024B000DDFFB40E1724196E000E18201A6E20EEE0
:1024C00099F01750D9261850DA2219C0DEFF1AC029
:1024D000DDFF740E1724196E000E18201A6E20EE00
:1024E0009BF01750D9261850DA2219C0DEFF1AC007
:1024F000DDFFA40E1724196E000E18201A6E20EEB0
:102500009EF01750D9261850DA2219C0DEFF1AC0E3
:10251000DDFF840E1724196E000E18201A6E20EEAF
:10252000A0F01750D9261850DA2219C0DEFF1AC0C1
:10253000DDFF20EEC3F01750D9261850DA22080E1E
:10254000DF6E440E1724196E000E18201A6E20EE4E
:10255000B4F01750D9261850DA2219C0DEFF1AC07D
:10256000DDFFA40E1724196E000E18201A6E20EE3F
:10257000B6F01750D9261850DA2219C0DEFF1AC05B
:10258000DDFF540E1724196E000E18201A6E20EE6F
:10259000B9F01750D9261850DA2219C0DEFF1AC038
:1025A000DDFF940E1724196E000E18201A6E20EE0F
:1025B000BBF01750D9261850DA2219C0DEFF1AC016
:1025C000DDFF440E1724196E000E18201A6E20EE3F
:1025D000BEF01750D9261850DA2219C0DEFF1AC0F3
:1025E000DDFFA40E1724196E000E18201A6E20EEBF
:1025F000C0F01750D9261850DA2219C0DEFF1AC0D1
:10260000DDFF1200160E176E010E186E99EC0EF01B
:10261000040E0101E36F430E0101E46F000E01019E
:10262000E56F000E0101E66FAC0E0101E76F430E8E
:102630000101E86FE4EC2AF00009D8B464D098EC0A
:102640002BF00101106FA6EC2BF001010F6F14ECC1
:1026500029F013C028F114C029F1B4EC28F013C0FC
:102660002AF114C02BF1CCEC28F013C02CF114C0CB
:102670002DF1FCEC28F013C02EF114C02FF1000E48
:102680000001656F000E646F000165BF08D0000196
:10269000655126E10A0E0001645DD8B021D0000129
:1026A00064517EEC24F064C062F065C063F0D890A1
:1026B000000162376337080E00016227000E6323B2
:1026C000280E00016225D96E010E00016321DA6E29
:1026D00013C0DEFF14C0DDFF0001644B652BD4D7AF
:1026E0009FEC2BF00101456F91EC2BF00101186F6D
:1026F000E4EC28F013C01DF114C01EF11DC11BF144
:102700001EC11CF167D06D0E01010F6F010E01019A
:10271000106F01010F515DEC2BF00101105153ECD2
:102720002BF028C115F029C116F0B6EC2AF02AC109
:1027300015F02BC116F072EC2AF02CC115F02DC14A
:1027400016F083EC2AF02EC115F02FC116F0A5EC7F
:102750002AF0000E0001676F000E666F000167BF70
:1027600008D00001675126E10A0E0001665DD8B06D
:1027700021D066C062F067C063F0D8900001623774
:102780006337080E00016227000E6323280E000144
:102790006225D96E010E00016321DA6EDECF15F0DD
:1027A000DDCF16F000016651AAEC25F00001664B62
:1027B000672BD4D7010118513FEC2BF01DC115F048
:1027C0001EC116F094EC2AF00101455149EC2BF0A2
:1027D00071EC2BF0000E206E380E216E410E226E31
:1027E0000101455108EC2AF019C01DF01AC01EF075
:1027F0001BC01FF012EC1EF01DC02CF01EC02DF0EF
:102800001FC02EF098EC1DF02CC03BF02DC03CF00A
:10281000DFEC27F0000E206E380E216E410E226E86
:102820000101455108EC2AF019C01DF01AC01EF034
:102830001BC01FF012EC1EF01DC02CF01EC02DF0AE
:102840001FC02EF098EC1DF02CC03BF02DC03CF0CA
:10285000C1EC27F0000E0101116F020E0101126F91
:10286000200E0101146F480E0101156F160E156E32
:10287000010E166E0AEC25F0120020C018F021C0DF
:1028800019F0000E1B6E0A0E1A6E60EC27F018503D
:10289000316E000E146E0A0E136E3150256E266ACC
:1028A000251E261E254A262A20502524116E215039
:1028B0002620126E33EC25F011C018F012C019F06A
:1028C000000E1B6E0A0E1A6E60EC27F01850306E68
:1028D000000E146E640E136E305031C025F0266A5F
:1028E0002526000E2622251E261E254A262A205091
:1028F0002524116E21502620126E33EC25F011C0D4
:1029000018F012C019F0000E1B6E0A0E1A6E60EC61
:1029100027F018502F6E030E146EE80E136E305011
:1029200031C025F0266A2526000E26222F502526A6
:10293000000E2622251E261E254A262A2050252442
:10294000116E21502620126E33EC25F011C018F0C4
:1029500012C019F0000E1B6E0A0E1A6E60EC27F002
:1029600018502E6E270E146E100E136E305031C09C
:1029700025F0266A2526000E26222F502526000E39
:1029800026222E502526000E2622251E261E254AEA
:10299000262A20502524116E21502620126E33EC59
:1029A00025F011C018F012C019F0000E1B6E0A0EAF
:1029B0001A6E60EC27F01850276E050E226402D0C4
:1029C000050E226E000E326E3250010D280EF324D9
:1029D000D96E000EF420DA6E2750300FDF6E322AE7
:1029E0003250010D280EF324D96E000EF420DA6E59
:1029F0002E50300FDF6E322A3250010D280EF32494
:102A0000D96E000EF420DA6E2F50300FDF6E322AAE
:102A10003250010D280EF324D96E000EF420DA6E28
:102A20003050300FDF6E322A3250010D280EF32461
:102A3000D96E000EF420DA6E3150300FDF6E322A7C
:102A40003250010D280EF324D96E000EF420DA6EF8
:102A5000000EDF6E322A2250256E266A251E261EA3
:102A6000254A262A050E2526000E2622280E252474
:102A70001B6E000E26201C6E23C01DF024C01EF00D
:102A8000AEEC26F012001304D8A4A7D020EE01F07B
:102A90001150D9261250DA22DF50D8B49ED020EE41
:102AA00003F01150D9261250DA22DF06DE28D8A40E
:102AB00094D020EE10F01150D9261250DA22000ED8
:102AC000DE6E000EDD6E20EE0CF01150D926125095
:102AD000DA22000EDE6E000EDD6E12001304D8B492
:102AE00011D020EEC4F01150D9261250DA2210EE87
:102AF00002F0DE50E126DD50E222E6CF16F0E5CF0F
:102B000017F012D020EEC4F01150D9261250DA225C
:102B1000DECF14F0DDCF15F014C0D9FF15C0DAFFF9
:102B2000DECF16F0DDCF17F020EEC4F01150D9261D
:102B30001250DA2216C0DEFF17C0DDFF5ED013048C
:102B4000D8B409D020EEC4F01150D9261250DA22A0
:102B500010EE07F008D020EEC4F01150D926125024
:102B6000DA2210EE05F0DE50E126DD50E222E6CF5B
:102B700018F0E5CF19F020EEC4F01150D92612500C
:102B8000DA2218C0DEFF19C0DDFF37D01304D8B435
:102B900009D020EEC4F01150D9261250DA2210EEDE
:102BA0000CF008D020EEC4F01150D9261250DA22D1
:102BB00010EE0AF0DE50E126DD50E222E6CF1AF0F8
:102BC000E5CF1BF020EEC4F01150D9261250DA22C6
:102BD0001AC0DEFF1BC0DDFF10D020EE0BF011503D
:102BE000D9261250DA22DF50000AD8B477D7010A6A
:102BF000D8B4A5D7030AD8B4C9D71350D8A413D0D2
:102C000020EE0CF01150D9261250DA22DE2A000EE6
:102C1000DD2220EE10F01150D9261250DA22DE0605
:102C2000000EDD5A120020EE0CF01150D926125081
:102C3000DA22DE06000EDD5A20EE10F01150D92601
:102C40001250DA22DE2A000EDD221200010E3A6E48
:102C5000B2D038C032F039C033F0AFEC24F038C015
:102C600032F039C033F0D6EC20F0C2D038C032F0A8
:102C700039C033F0AFEC24F038C032F039C033F053
:102C800080EC20F0B5D020EE06F03850D92639502F
:102C9000DA2201010F51DE18D8B4AAD038C032F0C0
:102CA00039C033F0AFEC24F020EE06F03850D926CE
:102CB0003950DA22DF5001010F6F01010F515DEC35
:102CC0002BF096D0010110510001606F616BD00EA6
:102CD0000001626FFF0E0001636F20EE06F03850B6
:102CE000D9263950DA22DF500001646F656B00018C
:102CF0006251000164270001635100016523000156
:102D000060510001641906E100016151000165197B
:102D1000D8B46ED020EE06F03850D9263950DA22D9
:102D2000300EDE18D8B417D038C032F039C033F0C6
:102D3000AFEC24F020EE06F03850D9263950DA22D4
:102D4000DF50D00F0101106F0101105153EC2BF037
:102D5000FDEC2AF04DD038C032F039C033F0370ED8
:102D6000346E13EC24F044D038C032F039C033F064
:102D7000AFEC24F03DD0000E3C6E000E3B6E3CBE2E
:102D800006D03C5035E10A0E3B5CD8B031D038C09B
:102D900032F039C033F0AFEC24F03B4A3C2AEFD795
:102DA000FF0026D038C032F039C033F0350E346E13
:102DB00013EC24F01DD020EE05F03850D926395000
:102DC000DA22DF503F0AD8B4CFD77C0AD8B45BD719
:102DD000050AD8B43ED70E0AD8B448D7010AD8B4E9
:102DE00071D72F0AD8B4C7D7140AD8B4D9D7DAD72D
:102DF0003A501200000E196E000E186EC20E182402
:102E0000D96E020E1920DA6E11C0E1FF12C0E2FF86
:102E1000DFCFE7FF184A192A20EE01F01150D9261A
:102E20001250DA22C20E1824E16E020E1920E26E50
:102E3000E750F00BDF6E20EE0DF01150D926125046
:102E4000DA22C20E1824E16E020E1920E26EE7505B
:102E50000F0BDF6E184A192AC20E1824D96E020E03
:102E60001920DA6E10EE02F01150E1261250E22223
:102E7000DFCFE7FF184A192A20EE03F01150D926B8
:102E80001250DA22C20E1824E16E020E1920E26EF0
:102E9000E750D00FDF6E184A192AC20E1824D96ED7
:102EA000020E1920DA6E10EE04F01150E1261250D5
:102EB000E222DFCFE7FF184A192AC20E1824D96E82
:102EC000020E1920DA6E10EE05F01150E1261250B4
:102ED000E222DFCFE7FF184A192A000E176E000E14
:102EE000166E18D0C20E1824D96E020E1920DA6E92
:102EF000060E1624136E000E1720146E13501124A4
:102F0000E16E14501220E26EDFCFE7FF184A192A53
:102F1000164A172A20EE0DF01150D9261250DA2247
:102F2000DF50136E146A1350165C1750800A156E2A
:102F30001450800A1558D8A0D5D7C20E1824D96EBF
:102F4000020E1920DA6E10EE0BF01150E12612502D
:102F5000E222DFCFE7FF184A192AC20E1824D96EE1
:102F6000020E1920DA6E10EE0CF01150E12612500C
:102F7000E222DFCFE7FF20EE0EF01150D9261250EB
:102F8000DA22010EDF6E20EE0FF01150D92612501A
:102F9000DA22010EDF6E1200000E196E000E186E9E
:102FA000000E1824D96E010E1920DA6E11C0E1FF4F
:102FB00012C0E2FFDFCFE7FF184A192A20EE01F026
:102FC0001150D9261250DA22000E1824E16E010E9B
:102FD0001920E26EE750F00BDF6E20EE0DF011507D
:102FE000D9261250DA22000E1824E16E010E1920A3
:102FF000E26EE7500F0BDF6E184A192A000E1824F4
:10300000D96E010E1920DA6E10EE02F01150E12691
:103010001250E222DFCFE7FF184A192A20EE03F010
:103020001150D9261250DA22000E1824E16E010E3A
:103030001920E26EE750D00FDF6E184A192A000EF1
:103040001824D96E010E1920DA6E10EE04F011501A
:10305000E1261250E222DFCFE7FF184A192A000EBC
:103060001824D96E010E1920DA6E10EE05F01150F9
:10307000E1261250E222DFCFE7FF184A192A000E9C
:10308000176E000E166E18D0000E1824D96E010EA1
:103090001920DA6E060E1624136E000E1720146E19
:1030A00013501124E16E14501220E26EDFCFE7FFBF
:1030B000184A192A164A172A20EE0DF01150D9265F
:1030C0001250DA22DF50136E146A1350165C175038
:1030D000800A156E1450800A1558D8A0D5D7000E56
:1030E0001824D96E010E1920DA6E10EE0BF0115073
:1030F000E1261250E222DFCFE7FF184A192A000E1C
:103100001824D96E010E1920DA6E10EE0CF0115051
:10311000E1261250E222DFCFE7FF20EE0EF0115041
:10312000D9261250DA22030EDF6E20EE0FF0115076
:10313000D9261250DA22010EDF6E120018C0D9FF14
:1031400019C0DAFFDF501E6E20EE0DF01850D926A0
:103150001950DA22DF501A6E20EE01F01850D926ED
:103160001950DA22DF501A101F6E20EE02F01850AC
:10317000D9261950DA22DF50206E20EE03F01850C5
:10318000D9261950DA22DF50300F216E20EE04F0DC
:103190001850D9261950DA22DF50226E20EE05F0A1
:1031A0001850D9261950DA22DF50236E000E2F6EE8
:1031B000000E2E6E1CD0060E2E241A6E000E2F202E
:1031C0001B6E1A501824D96E1B501920DA6E060E89
:1031D0002E241C6E000E2F201D6E1E0E1C24E16E70
:1031E000000E1D20E26EDFCFE7FF2E4A2F2A20EED1
:1031F0000DF01850D9261950DA22DF501A6E1B6ACA
:103200001A502E5C2F50800A1C6E1B50800A1C58CE
:10321000D8A0D1D720EE0BF01850D9261950DA22B9
:1032200010EE0DF01850E1261950E222E7501A6E08
:103230001B6A060E1A26000E1B221E0E1A24E16EB1
:10324000000E1B20E26EDFCFE7FF20EE0CF01850DF
:10325000D9261950DA2210EE0DF01850E126195037
:10326000E222E7501A6E1B6A070E1A26000E1B2276
:103270001E0E1A24E16E000E1B20E26EDFCFE7FF68
:10328000000E2F6E000E2E6E20EE0DF01850D92677
:103290001950DA22DF50080F2D6E1E0E116E000E2F
:1032A000126E2DC013F097EC29F01E0E2E24D96E4D
:1032B000000E2F20DA6EDF50B7EC2BF02E501A6E76
:1032C0002F501B6E2E4A2F2A1E0E1A24D96E000E66
:1032D0001B20DA6E040EDE18D8B41200E6D7000107
:1032E00020EE05F06451D9266551DA22DECF66F072
:1032F000DDCF67F00001661F671F664B672B580E16
:10330000000166250001686F020E000167210001BF
:10331000696F000120EE09F06451D9266551DA2267
:10332000DE2A000EDD2200016851DE1804E10001F2
:103330006951DE18D8A41200000120EE09F0645192
:10334000D9266551DA22000EDE6E000EDD6E000118
:1033500020EE10F06451D9266551DA22010EDBBE51
:1033600029D0010EDB5003E1DE04D8A023D064C0D5
:1033700011F065C012F0000E136E43EC15F064C03E
:1033800011F065C012F0000120EECDF06451D92695
:103390006551DA22DECF66F0DDCF67F001D812008A
:1033A0000500FA6E00016651FD6E6751FE6EFF6A00
:1033B000FA501200000120EE10F06451D926655138
:1033C000DA22010EDBAE23D064C011F065C012F02A
:1033D000010E136E43EC15F064C011F065C012F0DD
:1033E000000120EECDF06451D9266551DA22DECFFE
:1033F00066F0DDCF67F001D812000500FA6E00011B
:103400006651FD6E6751FE6EFF6AFA50120064C08D
:1034100062F065C063F0000120EED1F06451D9265E
:103420006551DA22DECF66F0DDCF67F001D80AD031
:103430000500FA6E00016651FD6E6751FE6EFF6A6F
:10344000FA50120064C0D9FF65C0DAFF010EDF6ECA
:10345000000120EE04F06451D9266551DA22000EF5
:10346000DF6E1200000E0001E46F02D00001E42BB9
:103470000001E451010D13C015F014C016F0F35013
:103480001526F450162215C0F6FF16C0F7FFF86A8D
:103490000800F5500009D8A4E9D7010E0001606FBB
:1034A000100E0001616F0FC162F001011051300F69
:1034B0000001636F3E0E0001646F3E0E0001656FF8
:1034C000000E0001E36F000EE26F21D00001E25117
:1034D0001324156E0001E3511420166E15C0F6FF7B
:1034E00016C0F7FFF86A060E0001E225176E000EFF
:1034F0000001E321186E600E1724D96E000E18200B
:10350000DA6E0800F5CFDFFF0001E24BE32B00018C
:10351000E451156E166A15500001E25D0001E35199
:10352000800A176E1650800A1758D8A0CFD700010E
:10353000E451156E166A060E1526000E1622600E50
:103540001524D96E000E1620DA6E460EDF6E0001CD
:10355000E451156E166A070E1526000E1622600E2F
:103560001524D96E000E1620DA6E040EDF6E000EE2
:103570000001E16F000EE06F080E0001E427600E0D
:103580000001E025D96E000E0001E121DA6EDF5066
:10359000B7EC2BF00001E051156E0001E151166E01
:1035A0000001E04BE12B600E1524D96E000E1620B1
:1035B000DA6E040EDE18D8B41200E1D7010E000155
:1035C0006F6F000120EE01F06D51D9266E51DA22A5
:1035D000200EDE18D8A480D0000120EE03F06D513B
:1035E000D9266E51DA2201011051DE18D8B474D0F8
:1035F000000120EE03F06D51D9266E51DA22DF5022
:10360000D8B46AD06DC032F06EC033F0330E346E71
:1036100013EC24F000016F5112006DC038F06EC041
:1036200039F026EC16F043D06DC062F06EC063F046
:1036300039EC08F03CD06DC035F06EC036F08CEC43
:103640001EF035D06DC035F06EC036F002EC1FF0C4
:103650002ED06DC035F06EC036F068EC23F027D068
:103660006DC032F06EC033F0340E346E13EC24F0C3
:1036700048D0000120EE04F06D51D9266E51DA22B7
:10368000DF503F0AD8B4C9D77D0AD8B4E2D7010ABF
:10369000D8B4D1D7110AD8B4C7D7010AD8B4D2D771
:1036A000DFD76DC035F06EC036F06CEC1FF0000156
:1036B0006F6F27D06DC032F06EC033F0310E346EB4
:1036C00013EC24F01ED06DC032F06EC033F0310E1A
:1036D000346E13EC24F015D0000120EE01F06D5192
:1036E000D9266E51DA22DF50100AD8B4E3D7300A57
:1036F000D8B4BFD7100AD8B4D4D7700AD8B4D1D7A9
:10370000E2D700016F5112004A50D8A41BD0000E1E
:103710003F6E000E3E6E000E216E67EC2BF000092E
:10372000D8B408D050EC28F0216E21C000F121045B
:10373000D8A4F3D72104D8A41200010E4A6E3E4A41
:103740003F2A120067EC2BF00009D8B428D050ECC7
:1037500028F01A6E000E3E24D96E010E3F20DA6E5C
:103760001AC0DFFF030E156E3EC016F0000E3E2499
:10377000D96E010E3F20DA6EDF503DEC27F03E504F
:103780001A6E3F501B6E3E4A3F2A000E1A24D96E15
:10379000010E1B20DA6E040EDE18D8A4D3D7FF0E5C
:1037A0001A6EFF0E1B6E3EC01CF03FC01DF01A507B
:1037B0001C261B501D22000E1C24D96E010E1D203C
:1037C000DA6E040EDE18D8B402D0010E01D0000E5D
:1037D0004A6E4A50D8A412004050100D000EF32437
:1037E0001F6E050EF420206E1FC011F020C012F0D5
:1037F000CCEC17F020EE0FF01F50D9262050DA2223
:10380000DF50D8B41200010E4024116E126A000E6F
:103810001222000E146E0A0E136EDBEC23F0115010
:10382000406E12004C50D8A41BD0000E0001EC6F6B
:10383000000EEB6F000E216E4550D8B408D0C8ECD6
:103840002BF0216E21C0C2F22104D8A4F5D72104A7
:10385000D8A41200010E4C6E0001EB4BEC2B1200B1
:103860004550D8B420D0C8EC2BF01A6EC20E00011F
:10387000EB25D96E020E0001EC21DA6E1AC0DFFFD3
:103880000001EB511A6E0001EC511B6E0001EB4B75
:10389000EC2BC20E1A24D96E020E1B20DA6E040E17
:1038A000DE18D8A4DDD7FF0E1A6EFF0E1B6EEBC01C
:1038B0001CF0ECC01DF01A501C261B501D22C20E1D
:1038C0001C24D96E020E1D20DA6E040EDE18D8B448
:1038D00002D0010E01D0000E4C6E4C50D8A4120044
:1038E0004350100D000EF3241F6E040EF420206EC2
:1038F0001FC011F020C012F0FAEC16F020EE0FF00D
:103900001F50D9262050DA22DF50D8B41200010E01
:103910004324116E126A000E1222000E146E0A0E5B
:10392000136EDBEC23F01150436E1200010E3D6E5E
:1039300068D0000120EE01F06D51D9266E51DA22D7
:10394000400EDF6E2CD06DC038F06EC039F026EC22
:1039500016F04CD06DC062F06EC063F039EC08F028
:1039600045D06DC035F06EC036F08CEC1EF03ED008
:103970006DC035F06EC036F002EC1FF037D06DC070
:1039800035F06EC036F068EC23F030D06DC032F008
:103990006EC033F0340E346E13EC24F046D00001C8
:1039A00020EE04F06D51D9266E51DA22DF503F0A25
:1039B000D8B4C9D77D0AD8B4E2D7010AD8B4D1D7D0
:1039C000110AD8B4C7D7010AD8B4D2D7DFD70001BB
:1039D00020EE01F06D51D9266E51DA22100EDF6E05
:1039E0006DC035F06EC036F06CEC1FF03D6E1DD032
:1039F0006DC032F06EC033F0310E346E13EC24F033
:103A000014D0000120EE01F06D51D9266E51DA225A
:103A1000DF50100AD8B4ECD7300AD8B48AD7100ACD
:103A2000D8B4E6D7700AD8B4D2D73D50120012C02D
:103A3000D9FF13C0DAFFDF501AEC2AF020EE0DF0A8
:103A40001250D9261350DA22DF50146E20EE01F006
:103A50001250D9261350DA22DF5014101AEC2AF033
:103A600020EE02F01250D9261350DA22DF501AEC61
:103A70002AF020EE03F01250D9261350DA22DF503C
:103A8000300F1AEC2AF020EE04F01250D926135011
:103A9000DA22DF501AEC2AF020EE05F01250D92677
:103AA0001350DA22DF501AEC2AF0000E186E000EC6
:103AB000176E11D0060E1724146E000E1820156E06
:103AC00014501224D96E15501320DA6EDF501AEC00
:103AD0002AF0174A182A20EE0DF01250D92613505A
:103AE000DA22DF50146E156A1450175C1850800AE1
:103AF000166E1550800A1658D8A0DCD720EE0BF0B1
:103B00001250D9261350DA22DF501AEC2AF020EE98
:103B10000CF01250D9261350DA22DF501AEC2AF09A
:103B20008C88010E0101EB6F010E0101EC6F120098
:103B30002EC030F0316A326A2D34303601E33180E4
:103B400030503A6E3A50D8A409D0000E2C6E000EB8
:103B50002D6E000E2E6E000E2F6E1200170E306EA0
:103B60002CC031F02DC032F02EC033F03028346E2E
:103B700004D0D890333232323132342EFAD7315029
:103B8000356E2D8EFF0E2C16FF0E2D16000E2E16E6
:103B90002C50366E2D50376E2E50386E396A8E0E80
:103BA0003A5E3AAE16D03A50800A8F0FD8B009D09C
:103BB000000E2C6E000E2D6E000E2E6E000E2F6E5F
:103BC0001200D89039323832373236323A3EF9D78D
:103BD00015D0170E3A640FD0000E2C6E000E2D6E0D
:103BE000000E2E6E000E2F6E1200D890363637362D
:103BF000383639363A063A50D8A4F7D73550D8B4C3
:103C000008D0391E381E371E366C000E3722382277
:103C1000392236C02CF037C02DF038C02EF039C014
:103C20002FF012001FC023F0246A256A1E342336A9
:103C300001E324802350266E2650D8A407D0000E1E
:103C40001D6E000E1E6E000E1F6E120022C023F0AD
:103C5000246A256A2134233601E3248023502B6E05
:103C60002B50D8A407D0000E1D6E000E1E6E000E45
:103C70001F6E12002B507B0F26261FC02BF02250E8
:103C80002B1A800E2B161E8E218EFF0E2016FF0E75
:103C90002116000E2216000E276E000E286E000E52
:103CA000296E070E2A6E1DA006D02050272621500F
:103CB000282222502922D8901F321E321D32D8903D
:103CC0002036213622362A2EEED7090E2A6E1DA066
:103CD00006D0205027262150282222502922D89071
:103CE0001F321E321D32D8902932283227322A2E16
:103CF000EED727C011F028C012F029C013F026C05B
:103D000014F02BC015F029EC20F011C01DF012C0EA
:103D10001EF013C01FF01200010E376E51D035C0D7
:103D200032F036C033F0360E346E13EC24F068D027
:103D300035C032F036C033F0360E346E13EC24F05A
:103D40005FD035C032F036C033F0360E346E13EC2F
:103D500024F056D035C032F036C033F0360E346E13
:103D600013EC24F04DD035C032F036C033F0360EAF
:103D7000346E13EC24F044D035C032F036C033F04A
:103D8000360E346E13EC24F03BD035C032F036C022
:103D900033F0360E346E13EC24F032D035C032F0EE
:103DA00036C033F0360E346E13EC24F029D035C013
:103DB00032F036C033F0350E346E13EC24F020D0E0
:103DC00020EE05F03550D9263650DA22DF50250A8C
:103DD000D8B4DBD7160AD8B4E1D7710AD8B4BAD7A9
:103DE000010AD8B4C9D7050AD8B4ABD70E0AD8B4DB
:103DF00096D71B0AD8B4B7D7090AD8B499D7D7D75A
:103E000037501200010E376E48D035C032F036C040
:103E100033F0360E346E13EC24F05CD035C032F043
:103E200036C033F0360E346E13EC24F053D035C068
:103E300032F036C033F0360E346E13EC24F04AD034
:103E400035C032F036C033F0360E346E13EC24F049
:103E500041D035C032F036C033F0360E346E13EC3C
:103E600024F038D035C032F036C033F0360E346E20
:103E700013EC24F02FD035C032F036C033F0360EBC
:103E8000346E13EC24F026D035C032F036C033F057
:103E9000350E346E13EC24F01DD020EE05F03550B5
:103EA000D9263650DA22DF503F0AD8B4AED77C0A82
:103EB000D8B4BDD7080AD8B4B1D7070AD8B4C0D788
:103EC000010AD8B4C6D71F0AD8B4CCD7060AD8B4CA
:103ED000D2D7DAD737501200010E376E48D020EE15
:103EE00001F03550D9263650DA22200EDF6E20EE52
:103EF0000EF03550D9263650DA22020E36D020EE9A
:103F000001F03550D9263650DA22200EDF6E20EE31
:103F10000EF03550D9263650DA22030E26D035C0A1
:103F200032F036C033F0310E346E13EC24F02FD063
:103F300020EE01F03550D9263650DA22DF50300A13
:103F4000D8B4CDD7700AD8B4DAD7E9D720EE01F0CB
:103F50003550D9263650DA22100EDF6E20EE0EF0E4
:103F60003550D9263650DA22010EDF6E10D020EE01
:103F70000EF03550D9263650DA22DF50010AD8B477
:103F8000D7D7030AD8B4E2D7010AD8B4DFD735C0EF
:103F900030F036C031F0DEEC24F037501200050E60
:103FA000126E140E116EC7EC2AF08D92899A300EA3
:103FB000D3EC26F0000E126E820E116EC7EC2AF0C2
:103FC000300ED3EC26F0000E126E020E116EC7EC0E
:103FD0002AF0300ED3EC26F0000E126E010E116E98
:103FE000C7EC2AF0280ED3EC26F0000E126E010E5C
:103FF000116EC7EC2AF0280E1FEC2BF0000E126E8B
:10400000010E116EC7EC2AF0080E1FEC2BF0000E0B
:10401000126E010E116EC7EC2AF0010E1FEC2BF090
:10402000000E126E1A0E116EC7EC2AF0060E1FEC6F
:104030002BF0000E126E010E116EC7EC2AF00C0E62
:104040001FEC2BF0000E126E010E116EC7EC2AF061
:1040500012001450D8B405D0115012101310D8A467
:104060000CD0000E116E000E126E000E136E1200B8
:10407000142AD890133212321132000E1114166E17
:10408000000E1214176EFE0E1314186E1650171031
:104090001810D8B40CD0ECD7142A010E1126000E3B
:1040A0001222000E1322D890133212321132000E57
:1040B0001114166E000E1214176EFF0E1314186EE4
:1040C000165017101810D8B406D0E6D71406D8909A
:1040D00011361236133612BE03D0020E1460F6D714
:1040E00014A0129ED8901432145013121550D8A454
:1040F000138E11C011F012C012F013C013F0120091
:1041000020EE02F03250D9263350DA220FC1DFFF01
:1041100020EE03F03250D9263350DA2210C1DFFFEF
:1041200020EE04F03250D9263350DA223F0EDF6EF3
:1041300020EE05F03250D9263350DA22480EDF6ED9
:10414000000E376E000E366E37BE06D037501FE1B8
:10415000040E365CD8B01BD0060E3624F66E100E58
:104160003720F76EF86A000EF822060E3624346EF9
:10417000000E3720356E34503224D96E355033203E
:10418000DA6E0800F5CFDFFF364A372ADDD720EE9A
:104190000DF03250D9263350DA22040EDF6E32C0D1
:1041A00030F033C031F0DEEC24F0120020EE02F0EB
:1041B0003250D9263350DA220FC1DFFF20EE03F050
:1041C0003250D9263350DA2210C1DFFF20EE04F03E
:1041D0003250D9263350DA223F0EDF6E20EE05F042
:1041E0003250D9263350DA22460EDF6E000E376E7B
:1041F000000E366E37BE06D037501FE1040E365C17
:10420000D8B01BD0010E3624F66E100E3720F76E94
:10421000F86A000EF822060E3624346E000E37209F
:10422000356E34503224D96E35503320DA6E0800A2
:10423000F5CFDFFF364A372ADDD720EE0DF03250BA
:10424000D9263350DA22040EDF6E32C030F033C08C
:1042500031F0DEEC24F01200016E46D00001F25184
:104260004E18D8A402D0010E01D0000E4B6E1200E1
:104270004B50D8B4120002010051010D020EF3247C
:10428000D96E020EF420DA6E4DC0DFFF0201002964
:104290007F0B0201006F040E4D18D8A41200000E0F
:1042A0004B6E12000301005103010119D8B411D063
:1042B00003010151010D020EF324D96E030EF42007
:1042C000DA6EDF50C96E030101297F0B0301016F14
:1042D0001200040EC96E12008C98010E0101EB6FE2
:1042E000000E0101EC6F12000150000AD8B4B6D7DD
:1042F000010AD8B4D7D7030AD8B4BAD7010AD8A4C8
:104300001200EAD72DD0000EB96E020E636E1200B5
:10431000020EB96E020E636E1200020EB96E000E2E
:10432000636E1200020EB96E010E636E1200000E73
:10433000B96E010E636E1200010EB96E010E636E4E
:104340001200010EB96E000E636E1200010EB96EFE
:10435000020E636E1200000EB96E000E636E120044
:1043600020EEC4F01150D9261250DA2210EE0FF0D0
:10437000DE50E126DD50E222E750010AD8B4C3D76F
:10438000030AD8B4C5D7010AD8B4C7D7070AD8B426
:10439000C9D7010AD8B4CBD7030AD8B4CDD7010AFC
:1043A000D8B4CFD70F0AD8B4D1D7D5D7000E206E46
:1043B000380E216E410E226E000120EE2FF0625168
:1043C000D9266351DA22DF5008EC2AF019C01DF01B
:1043D0001AC01EF01BC01FF012EC1EF01DC02CF006
:1043E0001EC02DF01FC02EF098EC1DF02CC03BF02D
:1043F0002DC03CF0DFEC27F0000E206E380E216E51
:10440000410E226E000120EE2FF06251D926635139
:10441000DA22DF5008EC2AF019C01DF01AC01EF095
:104420001BC01FF012EC1EF01DC02CF01EC02DF0A2
:104430001FC02EF098EC1DF02CC03BF02DC03CF0BE
:10444000C1EC27F01200346E010E0101F06F0FC1B4
:10445000F2F110C1F3F134C0F4F132C0F5F1335090
:10446000300F0101F66F460E0101FB6F040E0101D2
:10447000FC6F010E0101FD6F1AD0100E0101F16FEA
:1044800012D0300E0101F16F020E0ED0400E01016C
:10449000F16F030E0101FE6FF00E306E010E316EF2
:1044A000DEEC24F0EAD7010E0101FE6F0CD0010111
:1044B0000F514F0AD8B4E5D71D0AD8B4DED73F0A4A
:1044C000D8B4E4D7DAD7F00E306E010E316EDEECE0
:1044D00024F01200000E1A6E000E196E21D0195031
:1044E0001524176E1A501620186E17C0F6FF18C044
:1044F000F7FF000EF86E0F0EF76403D00800F550BA
:1045000005D0F6CFE9FFF7CFEAFFEF502AEC2BF00A
:10451000000E126E010E116EC7EC2AF0194A1A2A0B
:1045200019501524176E1A501620186E17C0F6FF72
:1045300018C0F7FF000EF86E0F0EF76403D00800E6
:10454000F55005D0F6CFE9FFF7CFEAFFEF500009AD
:10455000D8B41200C4D7A60EF66E570EF76E000E32
:10456000F86E0900F5CF4DF00900F5CF4EF005EEDD
:1045700000F0A00EEE6AE806FDE104EE00F0A00EE9
:10458000EE6AE806FDE103EE00F0C20EEE6AE80610
:10459000FDE102EE00F0D10EEE6AE806FDE101EE6B
:1045A00000F011EE00F0EE6AE550E150FCE1E2505F
:1045B000FAE100EEE5F0090EEE6AE806FDE100EE34
:1045C0003EF00F0EEE6AE806FDE14F904F920001BB
:1045D0006EEF29F001011251D8A402D0010E01D0D2
:1045E000000E0101176F4204D8A408D0160E000176
:1045F0006A6F010E00016B6F61EC2AF00101160574
:10460000D8A41200000E0101166F01011A51D8B48E
:104610000FD0030E156E120E166EFF0E3DEC27F036
:104620004D0E326E1AC133F0520E23EC22F01200FE
:10463000A2EC23F0030E156E120E166E200E3DEC4A
:1046400027F04D0E326E1AC133F0520E23EC22F0D9
:104650001200BCEC2BF04A0E1B6E100E1C6E010EED
:104660001D6E000E1E6EAEEC26F0200E1B6E100EA0
:104670001C6E020E1D6E000E1E6EAEEC26F00B0EB2
:104680001B6E100E1C6E030E1D6E000E1E6EAEEC29
:1046900026F0350E1B6E100E1C6E040E1D6E000EE5
:1046A0001E6EAEEC26F0010E1B6E100E1C6E010E7F
:1046B0001D6E060E1E6EAEEC26F0060E1B6E100E64
:1046C0001C6E010E1D6E0F0E1E6EAEEC26F012005B
:1046D000010E376E24D035C032F036C033F0360EBE
:1046E000346E13EC24F02CD035C032F036C033F0E9
:1046F000360E346E13EC24F023D035C032F036C0C1
:1047000033F0360E346E13EC24F01AD035C032F08C
:1047100036C033F0350E346E13EC24F011D020EE99
:1047200005F03550D9263650DA22DF503F0AD8B48A
:10473000D2D76F0AD8B4E1D7030AD8B4D5D7E6D711
:1047400037501200020E156E110E166E2D0E3DEC36
:1047500027F0020E156E120E166E2D0E3DEC27F090
:10476000000E356E3550020D080EF326000EF422B1
:10477000280EF324D96E010EF420DA6EDE5001010A
:10478000221914E1DE5001012319D8A40FD0010E23
:104790003524206E216A000E2122020E226E020EA6
:1047A000236E110E246E3DEC14F01200352A090E12
:1047B0003564D8D71200000E166E12AE06D0116CFA
:1047C000121ED8B0122A010E166E14AE04D0136C4D
:1047D000141ED8B0142A13501410D8B418D0010ED7
:1047E000156E04D0D89013361436152A14AEFAD7A5
:1047F0001350115C14501258D8A004D01350115EFD
:104800001450125AD89014321332152EF1D7165074
:10481000D8B404D0116C121ED8B0122A11C011F0F5
:1048200012C012F0120020EE02F03250D92633509E
:10483000DA220FC1DFFF20EE03F03250D9263350C9
:10484000DA2210C1DFFF20EE04F03250D9263350B7
:10485000DA22150EDF6E20EE05F03250D9263350E5
:10486000DA22150EDF6E20EE06F03250D9263350D4
:10487000DA2234C0DFFF20EE0DF03250D92633505B
:10488000DA22010EDF6E32C030F033C031F0DEECE0
:1048900024F012004204D8A404D0000E81B6010E08
:1048A000376E375001011219D8B4120037C012F117
:1048B00001011251D8A403D015C135F002D014C1A2
:1048C00035F0366A030E156E130E166E35503DEC3C
:1048D00027F0520E326E01011251D8A402D0010EFF
:1048E00001D0000E336E530E23EC22F001011205AD
:1048F000D8A402D08B9A12008B8A1200196E090E6E
:10490000196405D0000E146E000E136E12001950BB
:10491000156E166AD89015361636050E1524116ECA
:10492000010E1620126EF1EC2AF0176E1950156E5A
:10493000166AD89015361636060E1524116E010E1D
:104940001620126EF1EC2AF0186E1750166E156ACA
:1049500018501524136E000E1620146E120020EE4F
:1049600002F03250D9263350DA220FC1DFFF20EE99
:1049700003F03250D9263350DA2210C1DFFF20EE87
:1049800004F03250D9263350DA22060EDF6E20EEC4
:1049900005F03250D9263350DA22060EDF6E20EEB3
:1049A0000DF03250D9263350DA22000EDF6E32C0BD
:1049B00030F033C031F0DEEC24F0120014D030C0FF
:1049C00018F031C019F09EEC18F01DD0190E126EBF
:1049D000640E116EC7EC2AF030C012F031C013F033
:1049E00017EC1DF010D020EE0EF03050D9263150CB
:1049F000DA22DF50010AD8B4E2D7030AD8B403D0D0
:104A0000010AD8B4E3D7000E126E0D0E116EC7EC7A
:104A10002AF0120020EE0EF01550D9261650DA2298
:104A200010EE0CF01550E1261650E222DECFE6FF24
:104A3000DDCFE5FF15C011F016C012F020EE0EF02C
:104A40001550D9261650DA22DECF17F0DDCF18F038
:104A5000171E181E174A182A17C013F018C014F092
:104A600083EC25F01200000E176E000E166E135028
:104A70001410D8B41CD0010E156E04D0D890133683
:104A80001436152A14AEFAD7D890163617361350A6
:104A9000115C14501258D8A005D01350115E145058
:104AA000125A1680D89014321332152EEDD716C034
:104AB00011F017C012F01200000E8A6E000E896EFF
:104AC000000E0F013C6F000E8D6E000E8C6E000EFE
:104AD0008B6E030E0F01386F000E0F01396F000E41
:104AE0000F013A6F000E0F013B6FFE0E616E000E5C
:104AF000956E000E966EBE0E936E980E946EC30E5B
:104B0000926EF19E120020EE02F01150D926125042
:104B1000DA2210EE03F01150E1261250E222DFCF2C
:104B2000E7FF20EE10F01150D9261250DA2213C000
:104B3000DEFF14C0DDFF11C0D9FF12C0DAFF010E85
:104B4000DF6E20EE04F01150D9261250DA22010E49
:104B5000DF6E1200196E090E196401D0120019508F
:104B6000176E186AD89017361836050E1724116E6E
:104B7000010E1820126E1650136EFDEC27F019501E
:104B8000176E186AD89017361836060E1724116E4D
:104B9000010E1820126E15C013F0FDEC27F0120064
:104BA00022C120F023C121F0050E226E030E236ED8
:104BB0000D0E246E3DEC14F046C120F047C121F0EB
:104BC000040E226E040E236E070E246E3DEC14F0CC
:104BD00048C120F049C121F0040E226E040E236E5C
:104BE0000F0E246E3DEC14F012008B8A8C8C8C8E90
:104BF000938893868C98F40E116E560E126EB2EC5A
:104C00002BF0840E116E520E126EADEC2BF0F28E64
:104C1000F28C02EC13F029EC23F0FDEC2AF08A80F0
:104C20008B8A020E126E8A0E116EC7EC2AF08B9AD6
:104C30008A90120015C011F016C012F020EE14F088
:104C40001550D9261650DA22DECF17F0DDCF18F036
:104C500020EE0CF01550D9261650DA22DECF19F0CE
:104C6000DDCF1AF0191E1A1E194A1A2A17501924D4
:104C7000136E18501A20146E83EC25F0120015C024
:104C800011F016C012F020EE16F01550D92616506D
:104C9000DA22DECF17F0DDCF18F020EE0CF0155041
:104CA000D9261650DA22DECF19F0DDCF1AF0191E00
:104CB0001A1E194A1A2A17501924136E18501A204E
:104CC000146E83EC25F0120015C011F016C012F01E
:104CD00020EE18F01550D9261650DA22DECF17F044
:104CE000DDCF18F020EE0CF01550D9261650DA2240
:104CF000DECF19F0DDCF1AF0191E1A1E194A1A2A32
:104D000017501924136E18501A20146E83EC25F0D6
:104D1000120015C011F016C012F020EE12F015505E
:104D2000D9261650DA22DECF17F0DDCF18F020EEAC
:104D30000CF01550D9261650DA22DECF19F0DDCF4F
:104D40001AF0191E1A1E194A1A2A17501924136E1E
:104D500018501A20146E83EC25F01200000E1F6EFE
:104D600009D0000E05D0400E03D0140E01D0540E11
:104D70001F6E0DD01D50010AD8B4F3D7030AD8B462
:104D8000F2D7010AD8B4F1D7070AD8B4F0D71F5028
:104D90001E2480091FEC2BF01BC015F01CC016F060
:104DA0006AEC22F01200136E13AE02D08C8601D092
:104DB0008C9613AC02D08C8401D08C9413AA02D0B0
:104DC0008C8201D08C9213A802D08C8001D08C9060
:104DD000898A000E126E010E116EC7EC2AF0899AB4
:104DE000000E126E010E116EC7EC2AF012001DD0DB
:104DF0004450100D000EF32400016D6F040EF420DA
:104E000000016E6FDEEC1AF00009D8B41200010E3A
:104E10004424116E126A000E1222000E146E0A0E45
:104E2000136EDBEC23F01150446E43504418D8B499
:104E30001200DED71DD04150100D000EF3240001EA
:104E40006D6F050EF42000016E6F96EC1CF00009EA
:104E5000D8B41200010E4124116E126A000E122203
:104E6000000E146E0A0E136EDBEC23F01150416E2F
:104E700040504118D8B41200DED7176E000E186EDD
:104E800009D0000E05D0400E03D0140E01D0540EF0
:104E9000186E0DD01550010AD8B4F3D7030AD8B450
:104EA000F2D7010AD8B4F1D7070AD8B4F0D718500E
:104EB000162480091FEC2BF017502AEC2BF012005F
:104EC0001A501B10D8B418D0010E1C6E04D0D89004
:104ED0001A361B361C2A1BAEFAD71A50185C1B5008
:104EE0001958D8A004D01A50185E1B50195AD890DF
:104EF0001B321A321C2EF1D718C018F019C019F045
:104F00001200550E026E9E96C9CF02F0C7A40BD0B8
:104F1000C7BAC5AC04D0030E2CEC21F011D0010EA1
:104F20002CEC21F00DD0C7BA06D002C04EF0000E16
:104F30002CEC21F005D002C04DF0020E2CEC21F03B
:104F4000C6881200116E0001F351D8B4FCD79DB889
:104F500003D011C0ADFF13D09D984850010D820EB3
:104F6000F324D96E020EF420DA6E11C0DFFF482A56
:104F70003F0E486402D0000E486E0001F3079D8882
:104F800012003BC060F03CC061F00001D89061337A
:104F900060330001D8906133603300016051676E67
:104FA0003BC060F0030E000160170001603BF00E93
:104FB00060176650CF0B00016011666E12003BC097
:104FC00060F03CC061F00001D890613360330001B3
:104FD000D8906133603300016051BE6E3BC060F019
:104FE000030E000160170001603BF00E6017BD501A
:104FF000CF0B00016011BD6E1200000EF2BE010E5B
:10500000146E1250030BAA6E11C0A9FF13C0A8FFA3
:10501000A69EA69CA684F29E550EA76EAA0EA76E0B
:10502000A682A6B2FED7A69414B002D0F29E01D0FA
:10503000F28E1200000E116EAB8A4550D8B4FDD727
:105040009D9A4750010D820EF324D96E030EF42071
:10505000DA6EDF50116E472A3F0E476402D0000E11
:10506000476E45069D8A115012009D9A9D98080E24
:10507000B86E900EAB6E240EAC6E820EAF6E060E46
:10508000B06E000E486E000E496E400E0001F36FC8
:10509000000E466E000E476E000E456E9D8A120091
:1050A000000E116E0201005102010119D8B410D096
:1050B00002010151010D020EF324D96E020EF420FB
:1050C000DA6EDF50116E020101297F0B0201016FC0
:1050D000115012008AEC2BF05CEC25F083EC2BF0E5
:1050E00035EC28F050EC2AF083EC29F0D7EC2AF0CC
:1050F000F6EC29F0E4EC29F035EC2BF009EC2BF080
:10510000ABEC29F01200400E0001F36113D04950BE
:10511000010D820EF324D96E020EF420DA6EDF50F8
:10512000AD6E492A3F0E496402D0000E496E00015F
:10513000F32B12009D981200156E15C013F0134644
:105140001346C2501318830B1318C26EC280C2825A
:10515000C2B2FED7C450146E136AC3501324116E2A
:10516000000E1420126E1200010E126E1E0E116E31
:10517000F1EC2AF0176E010E126E1F0E116EF1EC9B
:105180002AF0186E1750166E156A18501524136EF3
:10519000000E1620146E1200010E126E200E116EFB
:1051A000F1EC2AF0176E010E126E210E116EF1EC69
:1051B0002AF0186E1750166E156A18501524136EC3
:1051C000000E1620146E1200010E126E240E116EC7
:1051D000F1EC2AF0176E010E126E250E116EF1EC35
:1051E0002AF0186E1750166E156A18501524136E93
:1051F000000E1620146E1200010E126E220E116E99
:10520000F1EC2AF0176E010E126E230E116EF1EC06
:105210002AF0186E1750166E156A18501524136E62
:10522000000E1620146E1200010E126E1C0E116E6E
:10523000F1EC2AF0176E010E126E1D0E116EF1ECDC
:105240002AF0186E1750166E156A18501524136E32
:10525000000E1620146E1200000E9CEC28F011C0F7
:1052600046F112C047F1010E9CEC28F011C048F144
:1052700012C049F1000E0001E86F000EE76FD0EC9C
:1052800025F012000001E54BE62BF50E0001E55D6F
:10529000010E0001E659D8A012008ABC02D08A8C07
:1052A00001D08A9C000E0001E66F000EE56F12002F
:1052B000ABA202D0AB9EAB8E4650010D820EF32402
:1052C000D96E030EF420DA6EAECFDFFF462A3F0E12
:1052D000466402D0000E466E452A12006AEC28F0A1
:1052E000F5EC25F05F0E136E100E146E32EC1AF012
:1052F00084EC1BF01AEC27F012EC1CF0F7EC26F013
:10530000BEEC29F0F5D7790E0F01516FF90E0F01A0
:10531000526F000E0F01536F7E907D80A80E116EAC
:10532000570E126EADEC2BF0CEEC2BF01200FE0EF1
:10533000146EFF0E156E1350166E176A1450162653
:105340001550172216501124D96E17501220DA6EFC
:10535000460EDF6E1200940E0001F26F000EC76E53
:10536000260EC66E000EC56EC580600ECB6EFE0E9C
:10537000CA6EF2C0C8FF9E969D861200EAEC22F02B
:105380004AEC24F0C90E0001E75D320E0001E85935
:10539000D8B02CEC29F04204D8A41200000E426EC2
:1053A000120011501302F3CF15F0F4CF16F0115084
:1053B0001402F350162612501302F350162615C08D
:1053C00011F016C012F012002C0E666E000E646E04
:1053D000800E656E000E636E080E676E000E686EBE
:1053E0000F014951E70B1009496F12002C0EBD6ED9
:1053F000000EB66E800EB76E000EB96E080EBE6E51
:10540000000EBF6E0F014951FC0B0209496F1200DB
:105410001C6E1C50116E126A136A8E0E146E000EF2
:10542000156E29EC20F011C019F012C01AF013C04B
:105430001BF01200116E03010051010D020EF32446
:10544000D96E030EF420DA6E11C0DFFF03010029CC
:105450007F0B0301006F12000001F0510001F111F8
:10546000D8B4120001D812000500FA6E0001F05104
:10547000FD6EF151FE6EFF6AFA5012000001EE510E
:105480000001EF11D8B4120001D812000500FA6E25
:105490000001EE51FD6EEF51FE6EFF6AFA501200F0
:1054A000020EBA6E4A0EBB6E000EBC6E9E929D82BC
:1054B000AA0E116E570E126EB2EC2BF0D1EC2BF03F
:1054C0001200000120EE04F06A51D9266B51DA2255
:1054D000DF50D8B412006AC064F06BC065F06FECA6
:1054E00019F01200010E126E1E0E116E1650136E80
:1054F000FDEC27F0010E126E1F0E116E15C013F099
:10550000FDEC27F01200010E126E200E116E1650E7
:10551000136EFDEC27F0010E126E210E116E15C0F8
:1055200013F0FDEC27F01200010E126E240E116E26
:105530001650136EFDEC27F0010E126E250E116E43
:1055400015C013F0FDEC27F01200010E126E220EB2
:10555000116E1650136EFDEC27F0010E126E230E25
:10556000116E15C013F0FDEC27F01200010E126E43
:105570001C0E116E1650136EFDEC27F0010E126E0C
:105580001D0E116E15C013F0FDEC27F0120007D0B0
:105590000001ED51D8B406D01106D8A01206000EB5
:1055A0000001ED6F11501210D8B41200F1D7020EA5
:1055B0000F014A6F1D0E0F014B6F000E0F014C6F54
:1055C0007E94CBEC2BF01200010E126E000E116EC9
:1055D000F1EC2AF0590AD8A402D0010E1200000EF4
:1055E00012001250030BAA6E11C0A9FFA69CA69E22
:1055F000A68000F000F0A850120010C120F0216A2F
:10560000020E226E020E236E040E246E3DEC14F088
:105610001200010EC26E000EC16E060EC06E000EAC
:10562000C36E000EC46E120015C011F016C012F049
:1056300017C013F018C014F083EC25F01200146E9C
:105640008D92899A1450D3EC26F01438F00BD3ECD9
:1056500026F01200146E8D82899A1450D3EC26F035
:105660001438F00BD3EC26F01200000E0F01546F2B
:10567000000E0F01556F000E0F01566F1200156ED0
:10568000010E126E1B0E116E15C013F0FDEC27F00B
:105690001200156E010E126E260E116E15C013F05B
:1056A000FDEC27F01200156E010E126E020E116E47
:1056B00015C013F0FDEC27F01200156E010E126EEE
:1056C000010E116E15C013F0FDEC27F0120002015F
:1056D000005102010119D8B402D0010E1200000ECF
:1056E0001200010E126E000E116E590E136EFDECBB
:1056F00027F012000001E74BE82B010E0001ED6FCF
:10570000010E426E1200700ED36E040ED26EC00EE9
:105710009B6E1200D09E9F969F989F9A7F909F921B
:105720001200010E126E1B0E116EF1EC2AF0120027
:10573000010E126E020E116EF1EC2AF01200010E33
:10574000126E260E116EF1EC2AF01200010E126E8E
:10575000010E116EF1EC2AF0120011C0F0F012C02F
:10576000F1F0120011C0EEF012C0EFF01200126E54
:105770001250A2EC27F012008D80CFEC1FF0120027
:105780007E902CEC2AF012009E923EEC2AF0120041
:105790001AEC28F012000F014A8512000F01518502
:0C57A0001200BA84120055AA1200120078
:020000040020DA
:08000000FFFFFFFFFFFFFFFF00
:020000040030CA
:0E000000FF291F30FF9F85FF0FC00FE00F404C
:00000001FF
