:0400000080313028F3
:100008007E14803120007F08F5000B1F1528210081
:10001800901D15282000901D152881319C218031C4
:100028002B280B1F21282100901C21282000901C20
:1000380021288231642280312B280B1F2B28210094
:10004800101C2B282000101C2B288131F02175084A
:100058002000FF007E100900803132284F308400D4
:100068008030850070308600233087000030FF0024
:10007800803082314C22803182319D22FA00F80191
:10008800F901A001A101A201A301A401A5017E100B
:10009800200082311E2A003401340234033404342F
:1000A800053406340734083409340A340B340C3464
:1000B8000D340E340F341034113412341334143414
:1000C800153416341734183419341A341B341C34C4
:1000D8001D341E341F342034213422342334243474
:1000E800253426342734283429342A342B342C3424
:1000F8002D342E342F3430343134323433343434D4
:10010800353436343734383439343A343B343C3483
:100118003D343E343F344034413442344334443433
:10012800453446344734483449344A344B344C34E3
:100138004D344E344F345034513452345334543493
:10014800553456345734583459345A345B345C3443
:100158005D345E345F3460346134623463346434F3
:10016800653466346734683469346A346B346C34A3
:100178006D346E346F347034713472347334743453
:10018800753476347734783479347A347B347C3403
:100198007D347E347F34F2000C29F801F80A080017
:1001A8007A08F0007008F900F7287908703EF00026
:1001B800F1012330F13D70088600710887007A0844
:1001C80081000130F0007008F90780307902031CC3
:1001D800F728F901F7287808003A0319D928013ACD
:1001E8000319D428D928F80108007908703E860038
:1001F80087012330873D0108240091000130F00079
:100208007008F90780307902031C0800F90108001A
:100218007208003A0319D128013A0319F928033A58
:100228000319EF28013A03191A291A29080022008C
:100238008C018D018E01133021008C00F0308D006F
:10024800C0308E008E3023008E00A0308D00033029
:100258008C00F03024008D003F308C00FF308E0081
:100268002100951325008C018D018E0100308B1B18
:1002780001302000A6008B1355303C008F00AA30B7
:100288008F000F100430A400163098000C30A10025
:1002980010303D009E000E30A30012309500113042
:1002A8009C000F30A5000E303C00A00055308F0098
:1002B800AA308F000F142000261C64298B17080011
:1002C8008B13080020002503031D93290130A00784
:1002D8000030A13D932927082106031D752926080A
:1002E8002006031D080022000C150E148E100E1196
:1002F8002000A401A40A08002808A900AA012108CE
:100308002A06031D892920082906031D0800220042
:100318000C110E108E140E152000A40108002408DC
:10032800003A03196F29013A031980299B2908000B
:100338005530F3007308F4002000901124001108D0
:10034800F3007308F400141DB029941A161FAE297F
:100358000330B9290130B929941AB4290030B929D0
:100368007408F3007308FA0002308031CF202400AB
:100378001516080030302000980099013C3097008D
:10038800B03096001708F7001608F6001010210084
:1003980010149F302000A6000230A70082318C2262
:1003A800813182319A22080081311B2181318231C9
:1003B8009222813182313022813182317022813121
:1003C80082317B2281318231082281318131BE2103
:1003D80081318231582208002000101077089700D8
:1003E80076089600A5010130A2070030A33D003031
:1003F80023020A3003192202031C080082313F221B
:100408002000A201A301080020009C019E019D017B
:100418009F01FF309B009A019010210090149E309C
:100428002000A6000230A700823186228231823164
:10043800972208008131D82182318B170B171E3083
:100448002000A6000030A7003C30AB002B08A80015
:10045800813166218231232A2400940126309500B7
:1004680096019701FE309300103092002000901101
:100478002100901508002000A501A50A2C082D04CC
:10048800031908002D088A002C080A008231080088
:10049800FE0012001E000130FE020030FF3B7F0804
:1004A8007E04031900344D2A083023009F00903041
:1004B8009D0004309E00A0309B0001309C00080085
:1004C800200090102E082F04031908002F088A0016
:1004D8002E080A008231080080302C009C007F30F2
:1004E8009B00C0309A003F3025009E0508008030F0
:1004F8002C0099007F309800C0309700CF3025003D
:100508009E05080020002708AF002608AE00080056
:1005180020002708AD002608AC0008007A3021002A
:1005280099009801080020009C1708002000181462
:0805380008005534080008001A
:020000040001F9
:06000E00FC3FFF3F9F3F95
:00000001FF
